:10000000F85F002011040000553200005532000056
:1000100055320000553200005532000055320000C4
:1000200055320000553200005532000055320000B4
:1000300055320000553200005532000055320000A4
:100040005532000055320000553200005532000094
:10040000FFFFFFFFFFFFFFFFFFFFFFFFFEFFFFFFFD
:1004100062B603F00DFDFEE7F1B5A4B015001E00B5
:10042000069104AC0020E0620AE00698249A904706
:100430000690002800D10DE3E06A401CE0626D1CCC
:100440002978002901D1E06A06E32529EDD10020B1
:100450006061A061E06120626062A06202E0010070
:10046000012008436D1C29782029F8D023290ED0BB
:100470002B2904D02D2907D030290BD00DE0010005
:100480000220084380B2EDE701000420F9E70100F3
:100490000820F6E701001020F3E72A290ED1316881
:1004A0000A1D326009686163002905D54A4262630A
:1004B00001000420084380B26D1C12E0002161633A
:1004C0000AE0626B744B9A4205D093009A1852006E
:1004D0005118303961636D1C29780A00303A0A2AB4
:1004E000EFD329782E2903D00021C94321631DE0D1
:1004F0006D1C29782A2906D131680A1D32600968E5
:1005000021636D1C12E0002121630AE0226B624B23
:100510009A4205D093009A1852005118303921633D
:100520006D1C29780A00303A0A2AEFD320872978EF
:1005300058487844FF305F3000F0D1FE002801D0E9
:1005400028786D1C3A216054605C682805D12978B0
:10055000682902D13A20622106E06C2806D1287869
:100560006C2803D13A20712121546D1C15A82061FB
:100570002A78100025382AD01C3800D1CFE0001F7F
:10058000022800D8CBE0133800D1F5E0093800D1BB
:10059000C5E0801E00D192E1401E00D139E1401E2D
:1005A000022800D8BBE0001F00D132E1401F00D17B
:1005B0008BE0401E00D1DFE0401E24D0C01E0CD0D6
:1005C000801E00D1D8E0C01E00D1D5E081E1616974
:1005D000481C606115A8252287E13068011D316043
:1005E0000068E060226B002A02D500F082FE08E07D
:1005F000002100F086FE002802D0E168401A00E0E9
:10060000206BA06172E13068011D3160026800203A
:10061000C0430021104004AA03C215A8E0603C2298
:1006200002AB04A803C803C302A803C8002904D16D
:10063000002802D1206B00281CD0521E02A803C83B
:100640000007000F3030C0B23A2800DB273015A970
:100650008B18187002A803C800090F07384309094E
:1006600002AF03C702A803C801D1002802D0E06886
:100670009842E2D33C20801AA06115A98918E16054
:10068000216B88420CDA081A2062208F034901404E
:1006900021872BE1243C0000FFFFFF7FEFFF0000DC
:1006A000002900D422E13821615C14220A40102A7A
:1006B00000D01BE1616B6269891A226A891A0A1AE1
:1006C000012A00DA12E1226210E13A20205C62285D
:1006D00017D0682806D06A280BD06C2818D071284B
:1006E00007D015E03068011D3160E16A00680180C3
:1006F000FCE03268101D3060E06AC117126803C266
:10070000F4E03068011D3160E16A00680170EDE0DD
:100710003068011D3160E16A00680160E6E0306820
:10072000C01D07218843306001000831316003C8D3
:1007300004AB03C3002905D56169481C606115A895
:100740002D230FE0208F810705D56169481C60616A
:1007500015A82B2306E0C00705D56169481C606118
:1007600015A820234354606915A90818E0601100FA
:1007700004A800F001FAB9E03A20235C6C2B01D107
:1007800030680FE0712B01D1306802E06A2B3068CD
:1007900008D1C01D07218843306001000831316055
:1007A00003C803E0011D31600068002104AF03C7E6
:1007B000682B05D104A803C880B2002104AB0FE068
:1007C000622B05D104A803C8C0B2002104AB07E026
:1007D000742B01D07A2B04D104AB04A803C80021E8
:1007E00003C33820205C000760D504A803C8002993
:1007F00001D100285AD020201043782856D16169B1
:1008000015A830234354491C481C606115A8425464
:100810004CE03A20205C62280CD0682810D06A286E
:100820001AD06C2822D0712816D074281ED07A28AD
:100830000CD01BE03068011D3160006840B219E047
:100840003068011D3160006800B213E03068011D9E
:100850003160006800210EE03068C01D0721884328
:10086000306001000831316003C804E03068011DC8
:1008700031600068C11704AB03C3002905DA616960
:10088000481C606115A82D230FE0208F810705D536
:100890006169481C606115A82B2306E0C00705D5D7
:1008A0006169481C606115A820234354606915A93B
:1008B0000818E060110004A800F0D0F816E06169A3
:1008C000481C60613068021D326015AA00685054EF
:1008D0000CE06169481C606115A825234354002A77
:1008E00004D06169481C606115A842546D1C606B9E
:1008F0006169401A216A401AA169401A616A401A66
:10090000E169401AA16A401A14903820205C40071F
:1009100011D4684620210171002709E0012301AAB2
:1009200004A9249800F0C1FC002800D092E07F1CAC
:1009300014988742F2DB676915A800900FE00098D1
:1009400001780698249A90470690002800D181E00B
:10095000E06A401CE0620098401C00907F1E002F5F
:10096000EDD1684630210171206A009008E0012332
:1009700001AA04A9249800F098FC00286AD17F1CE1
:1009800000988742F3DBA769E06800900EE00098CA
:1009900001780698249A9047069000285AD0E06A79
:1009A000401CE0620098401C00907F1E002FEED19A
:1009B000684630210171606A009008E0012301AAB5
:1009C00004A9249800F071FC002843D17F1C0098F2
:1009D0008742F3DBE769A069E168081800900EE040
:1009E000009801780698249A90470690002831D004
:1009F000E06A401CE0620098401C00907F1E002FBF
:100A0000EED1684630210171A06A009008E0012310
:100A100001AA04A9249800F048FC00281AD17F1CE0
:100A200000988742F3DB3820205C400700D407E5BC
:100A3000684620210171002700E07F1C149887423E
:100A400000DBFDE4012301AA04A9249800F02DFC99
:100A50000028F2D00020C04325B0F0BDF2B584B02C
:100A60000600306901906846027C6F2A01D1082097
:100A700006E020211143782901D00A2000E010204F
:100A800000903C2703CE083E04000D00642A01D0EC
:100A9000692A07D1002905DA00200021001BA9419D
:100AA00004000D00002D11D1002C0FD1306B002857
:100AB0000CD1009808283AD13820305C000736D590
:100AC0003B2701983B303021017030E07F1E0297B8
:100AD00020002900009AD31700F01FFC3032D2B258
:100AE0003A2A03DB6846007C513812180199CA552E
:100AF00020002900009AD31700F00FFC04000D001D
:100B000001D1002C04D0F0680199C9198842DDD3C5
:100B1000009808280BD13820305C000707D50198D1
:100B2000C05D302803D07F1E01983021C1553C2084
:100B3000C01BB0610199C919F160316B884206DAB6
:100B4000081A3062308F0B490140318710E00029CC
:100B50000ED53821715C14220A40102A08D1716B1D
:100B60007269891A326A891A0F1A012F00DB3762FB
:100B700005B0F0BDEFFF0000F3B591B007AD02AADC
:100B800003C803C212A80078202101430091612903
:100B90000CD01198006B002802D51198062104E0B2
:100BA00004D1672902D1119801210163119841688C
:100BB0004800400DA84A904225D1080312D111984F
:100BC000006800280ED111980321816112A80078D5
:100BD00061381A2842D32348784488300090032291
:100BE00000990BE011980321816112A80078613807
:100BF0001A282FD31C4979446E3103221198C068FA
:100C000000F0C0FBF8E1012817DA119800F0E8FBCA
:100C1000012812DB002700200099612931D11199A8
:100C2000C96830220A70491C119A4B1CD36012AA61
:100C30001278612A1ED178221DE011994968874AED
:100C40000A4087491143119A51608649471A00208A
:100C5000C043E1E7054979441231CEE704487844BE
:100C60000E30BBE7683600005C36000054360000EA
:100C70005836000058220A7011994969891C119A46
:100C80005161002803D1002468468480AAE10098BD
:100C9000612800D09DE01198046B002C01D521241F
:100CA00000E0641C24B2661C6A4603C803C202A8A2
:100CB00003C80022002300F0B5FB02AA684603C85F
:100CC00002D280231B06594003C2381F6946888020
:100CD00068460021017707AF7F1C00E0FF1D012E51
:100CE0002EDB02A803C80022002300F0B4FB27D2A9
:100CF0001C2102A800F0C8FB02A803C800F052FCA7
:100D00000500F61F012E09DB00F08AFC02000B0033
:100D100002A803C800F0FBFC02AA03C2FF1D0720C3
:100D200004E07F1E2907090F39702D11012D01DB09
:100D3000401EF6D5401ED1D47F1E00213970F9E740
:100D400007A8401C391A07AD6D1CA14200DA0C003F
:100D500024B2200034D4884206DA07A90918497859
:100D6000082901DB0F2100E0002107AA121801E089
:100D7000641E521E401E13788B42F9D00F2904D1F5
:100D800007A909184A78521C4A70002806D507ADF1
:100D9000641C019800B2001D6946888024B2601E60
:100DA0000ED429180A783032D2B23A2A03DB12ABB9
:100DB0001B783A3BD2180A70401E491E0028F1D514
:100DC0001198006B002800D40CE11198611E01639A
:100DD00008E102A803C80022002300F023FB06D28A
:100DE00002AA02A803C880231B06594003C23FB2CF
:100DF00082487843824900F017FD694688800720C1
:100E0000019909B2401A00267E4F01281EDB04908A
:100E100002A830C80498C00707D532003B00200064
:100E2000290000F05BFD04000D00049840100490C0
:100E30003000390032003B0000F050FD06000F008A
:100E400004980028E6D102A830C02DE04142049168
:100E500000246D4D1DE000BFFF070000FFFF0F8065
:100E60000000E03FFE030000C00707D532003B0052
:100E70002000290000F032FD04000D00049840100D
:100E800004903000390032003B0000F027FD0600DE
:100E90000F0004980028E7D102A803C822002B0005
:100EA00000F0DEFD02AA03C20098662803D1019873
:100EB00000B20A3000E006201199096B081804906E
:100EC000142801DB1320049068463021017707AC19
:100ED000641C0498012841DB02A803C800F074FBDD
:100EE000050008340594042428000A2100F09FFC22
:100EF0000E0028000A2100F09AFC05000598401E0B
:100F000006903036067028000A2100F090FC0E0092
:100F100028000A2100F08BFC05000698401E059071
:100F200030360670641EDFD1059C083404980838FA
:100F300004900128CDDB02A803C800F045FB00F0B7
:100F400079FB02000B0002A803C800F0E0FB0022BE
:100F50002E4B00F0C3FC02AA03C2BDE707A8401C49
:100F6000201A07AD6D1C6A4605E0401E019909B2C2
:100F7000491E91806D1C29783029F6D00099662988
:100F800003D1019909B2491C04E0652901D101216D
:100F900000E00021119A126B541824B2A04200DA2A
:100FA000040024B221001DD4814204DA685C352893
:100FB00001DB392000E030206A1800E0641E521E78
:100FC000491E13788342F9D0392802D1685C401C4D
:100FD0006854002906D56D1E641C019800B2401C9F
:100FE00069468880019800B2009023B22A0012A8B6
:100FF0000178119800F00CF813B0F0BD977500005F
:10100000A0860100000024400000F03F84D79741F3
:10101000F2B586B0050016001C0000F0A0FD406A85
:101020000078694608702F6B012C02DA012400BF9A
:10103000AAA66846017E20200843662805D10C98A0
:1010400000B2401C694608861BE0672800D090E08B
:101050000C9800B20321C943884200DA8EE0B842FE
:1010600000DB8BE0401C694608863820285C0007BE
:1010700002D4BC4200DA27000C9800B23F1A00D517
:101080000027E868A96943180C9A12B2012A28DAE5
:10109000491C30221A70012F03DA3822AA5C120789
:1010A00003D56A4612784254491CA9610C9909B2C9
:1010B0004A42974202DA69467A420A860C9909B294
:1010C0004A426A627F18A74200DA3C0024B2EC610F
:1010D00022003100AB69C01800F054F9381BA86237
:1010E000CDE00C9800B284421ADA220031001800D8
:1010F00000F048F9A8690019A8610C9A12B2111BF6
:101100006962012F03DA3821695C090706D5E968AD
:101110006A4612780A54E869401CE861AF62AEE0A2
:101120003100180000F02EF9A8690C9909B2401896
:10113000641A012F03DA3821695C090704D5E968CC
:101140006A4612780A54401CA86124B2A74200DA09
:101150003C0024B222000C9800B23118A869EB6858
:10116000181800F00FF9A8690019A861381B686207
:1011700085E0612915D16846702116E0BC4204DA89
:101180003820285C000700D427007F1E00D50027E8
:101190006846007E6728684601D1652105E0452143
:1011A00003E0412902D1684650210176A9694B1C10
:1011B000E86832784254711C012F05DA3822AA5CA3
:1011C000120701D4AB6115E06A461278C2545B1C69
:1011D000AB61012F0EDB641E24B2A74200DA3C0093
:1011E00024B22200C01800F0CDF8A8690019A86147
:1011F000381B6862A869E9680E186846007E30707E
:10120000761C0C9800B2002803D42B203070761C7A
:1012100005E02D213170761C694642420A86002481
:1012200003AF0AE00A2201A800F0B4FC029838706B
:10123000684601990186641C7F1C0C9909B201293A
:10124000F0DA022C08DA6846007E20210143652985
:1012500002D130203070761C002C09D13020307043
:10126000761C07E0641E03A8005D30303070761CE9
:10127000012CF7DAA869E9680818301AE861382003
:10128000285C1421014010290DD16869A969401812
:10129000696A4018E9694018A96A4018696B884270
:1012A00001DA081A286207B0F0BD79B50E00140003
:1012B0001D00002005E0F06A401CF0620020641C64
:1012C0006D1E002D08D02178B068009A9047B0605C
:1012D0000028F0D10020C04376BD00003000C9B224
:1012E00000E0401C02788A4202D0002AF9D1002096
:1012F0007047010000E0491C0A78002AFBD1081A57
:101300007047C9B201E0401C521E002A03D0037886
:101310008B42F8D1704700207047124224D0994286
:1013200028D970B500251B4202D00C00002109E02D
:101330000024012649186441944200D3A41A76413E
:10134000F8D33100012601E0764109D2001864414A
:101350006D41A41A9D41F7D2A4185D41B619F5D389
:10136000300022002B0070BD1B42D8D108B500F020
:1013700021FC08BD01D19042D3D202000B00002114
:1013800000207047124207D08B0706D00B78491C0B
:101390000370401C521EF7D87047830706D00B78A5
:1013A000491C0370401C521EF9D1704770B4103AAA
:1013B00003D378C9103A78C0FBD2530701D318C9B8
:1013C00018C001D508C908C0D20704D30B88038010
:1013D000891C801C002A01D50B78037070BC7047F3
:1013E00038B401004B68802212061A4001201B030A
:1013F0001B0B4B600BD10B68002B08D10DE00B6869
:101400006400DD0F25434D605B000B60401E4C689F
:10141000E302F4D523031B0B4B604B681A434A606D
:1014200032BC704730B4012464054D00EC420BD847
:101430005D00EC4208D80C001C43640004431443D4
:1014400004D2994200D1904230BC7047FCD08B420C
:10145000FAD18242F8E730B4012464054D00EC4231
:101460000BD85D00EC4208D80C001C436400044318
:10147000144304D28B4200D1824230BC7047FCD06E
:101480009942FAD19042F8E770B504000D00606807
:101490004000400D3F4EB04207D16068000302D1CA
:1014A0002068002816D0022070BD002804D120003A
:1014B000FFF796FF01286BDA012D0DDB311A8D4203
:1014C0000AD36068002802D50020334901E00020DB
:1014D000310503C4012070BD4142A942616806DAAA
:1014E0002E4A0A40281800051043606047E0802219
:1014F0001206114062681203120B80235B03134330
:101500006360401E2D1800202A003532352A02D390
:101510006160206070BD00221E23DB439D4204DA1F
:1015200020352268636823606060684211D0521ED3
:101530009241D243D20F20231B1A25689D402A4393
:101540002568C54066689E402E4326606368C34098
:1015500063606068084360601148824206D2802060
:10156000000682420ED12078C0070BD52068401CAF
:1015700020602068002805D16068401C6060002061
:10158000C04370BD60688842F9D120680028F6D158
:10159000002070BDFF0700000000F0FFFFFF0F807C
:1015A00001000080F4464A1805D200F00FF801D57A
:1015B00080174008604700F009F80121C9078842F8
:1015C00000D90800404260474A1812D2400DC902B3
:1015D00008430121C9070843520D40210901521A4D
:1015E000521C06D452421F3201D4D0407047C0175B
:1015F00070470020704738B4012100220368001DA5
:10160000002B0BD00468001D0C4202D04D466D1E0D
:1016100064192260241D1B1FF0D0FAE732BC70470A
:10162000010009D5F446404200F006F80122D20735
:1016300011436047010000BF42221201D21E004246
:1016400007D002D4521E0018FCD5C10A400512056D
:10165000891870478B4200D1824205D98446100018
:1016600062468C4619006346DF184C18640D7F0DE6
:101670003AD0661C760537D0E61B352E34DCDB020B
:101680002B43DB0A0C0DC9022943C912202E0DDBA6
:101690001700203E06D01F00F741F3405F400026B0
:1016A000012A7741C01871410DD217E01700F741A8
:1016B000F2405740F3415A40B340F3405A400026AD
:1016C000801859410AD3A21C52050FD0C207012F1E
:1016D000724117004008CB0718434908641C2405D1
:1016E0004208AF4170416141F0BC7047641C210564
:1016F0000020F9E76B4010E06B40ABE7F742F3D115
:10170000E943F1E72442EFD100200021ECE7F0B4F7
:101710000125ED070F005F40EED40C00871A9C41B5
:1017200005D2C01BA141D219634169406B40AE0A8A
:10173000DF184C18F442E1D2640D7F0DE2D0E61BB5
:10174000362ED1DCDB022B43DB0AA4460C0DC9028A
:101750002943C90A012E28DC04D1D6075208DF0725
:101760003A435B08EF0A76429041994114D03942DE
:101770003BD1B61940414941761C394204D1761C0F
:10178000001849413942FAD0B9436746B74208D9EF
:10179000A41B24052143A7E70042EAD13642E8D141
:1017A000A2E7E40AE10700209EE7202E0BDD203EA1
:1017B0001F00F340F7415F40012A002257417E425B
:1017C000984191410BE01700F741F2405740F34137
:1017D0005A40B340F3405A407E42904199410A0337
:1017E00003D2641EB619404149410027641E2405F6
:1017F0004208AE4178416141F0BC7047F446002890
:1018000004D4494200F013F84042604740420029A6
:1018100005D45FD000F00BF840424942604749428E
:1018200000F005F84942604703460B43E6D4002226
:10183000030A8B420BD203098B4219D243088B4215
:101840002ED2411A00D20146524110467047FF2263
:1018500009023FD012068B4205D3121209028B42B5
:1018600001D31212090203098B4219D300E0090ABD
:10187000C3098B4201D3CB01C01A524183098B4269
:1018800001D38B01C01A524143098B4201D34B0152
:10189000C01A524103098B4201D30B01C01A5241B5
:1018A000C3088B4201D3CB00C01A524183088B423C
:1018B00001D38B00C01A524143088B4201D34B0025
:1018C000C01A5241884200D3401A5241CFD2014639
:1018D0001046704708B500F06FF908BDF0B50E006E
:1018E0005E400125ED072E40B446AE0ADF184C18C5
:1018F000F44208D2F7420ED2640D01D07F0D12D10E
:1019000000206146F0BD05D1F74201D87F0D05D119
:101910000020C143F0BDFBD1640DF9D00020C143CC
:10192000490549088FE0E419C902DB0229432B432A
:10193000DB0A460DC00231438E4630B487B295B201
:101940007D432E0CADB2140C7C43A419260C240448
:1019500025439CB27C43A419190C7943270CC9195F
:10196000A4B20F043C43090C000C97B247432E0C61
:10197000BE193543ADB2170C4743360CBF19A6B29A
:10198000BF193E043543240C3E0C36199FB2474321
:10199000BF19BCB23E0C89191F0C47437F183E0487
:1019A0003443390C704680B297B247432E0CBE19AF
:1019B0003543ADB2170C4743360CBF19A6B2BF1959
:1019C0003E043543240C3E0C36199FB24743BF19E1
:1019D000BCB23E0C89191F0C47437F183E043443A8
:1019E000390C77463F0C90B278432E0C80190604D0
:1019F000ADB22E43050CA0B22D18120C7A4350192B
:101A0000020C80B2240CA4189AB27A43121914045E
:101A10002043120C89181B0C7B43C91830BCEF0AF9
:101A2000394203D1B61940414941641E6F12BF0DBE
:101A3000E41B0BDBFF19BC4211DA24050027420826
:101A4000AE417841614166463143F0BD641C05D129
:101A5000401C6141CF0201D34908F4E750E75DE73C
:101A6000F0B40E005E400125ED072E40B446AE0AEC
:101A7000DF184C18F4423BD2F74241D2640D43D0F8
:101A80007F0D38D0E41BC902DB0229432B43CF0A68
:101A9000DB0A0600B61A9F4104D2641EB6197F41C4
:101AA000B6185F416812800D24180018844222DAAB
:101AB000E80C0021B6197F41B61A9F4102D2B61830
:101AC0005F413F1C40414941F4D3241C21DD2405E2
:101AD000B6197F41B61A9F4105D33743C60737432E
:101AE0000026012F7041614166463143F0BC7047CA
:101AF000FCD1F74205D20020C14349054908F3E76C
:101B000004D00020C143F1E77F0DFAD000206146E8
:101B1000ECE72442FAD1401C61410F03F6D30020C8
:101B2000E2E70268531C03601170704780B51248E9
:101B300000F043F811A1016041608160C160016162
:101B4000416181610EA242628162C16201634163AF
:101B50000CA282630DA2C2630164416401BD10B591
:101B6000054800F02AF804002068002801D1FFF79A
:101B7000DDFF200010BD000010F1FF1F000000007D
:101B80002E00000066616C7365000000747275655C
:101B9000000000007CB504000E0015003000290094
:101BA000FFF742FE00904543701B0190684603C852
:101BB00003C476BD7047000070477047FCB58DB018
:101BC00006000D00149F00240D99C34800F0F2FB9D
:101BD00000F04AFC0200C14908A800F063FC684616
:101BE00030210155641C0E98002803D0684623213B
:101BF0000155641C68467C210155641C0B2E10DBCA
:101C000030000A21FFF710FE303069460855641C89
:101C100030000A21FFF708FE303168460155641C88
:101C200004E06846310030310155641C68467C216F
:101C30000155641C0B2D10DB28000A21FFF7F4FD71
:101C4000303069460855641C28000A21FFF7ECFD76
:101C5000303168460155641C04E068462900303183
:101C60000155641C68467C210155641C68460021AE
:101C70000155641C08A9684600F030FC002F02D012
:101C800097A100F02BFC6846FFF733FB401E694626
:101C900008706946002008561F280ADA2021684685
:101CA00000F0D6FD012807D100F003FE002803D183
:101CB000FAE78C4800F0BAFE0FB0F0BDF0B589B07D
:101CC00006000D0017000024684630210155641CF1
:101CD000684623210155641C68467C210155641C1B
:101CE0000B2E10DB30000A21FFF79EFD30306946D5
:101CF0000855641C30000A21FFF796FD3031684614
:101D00000155641C04E06846310030310155641C03
:101D100068467C210155641C0B2D10DB28000A212C
:101D2000FFF782FD303069460855641C28000A21FF
:101D3000FFF77AFD303168460155641C04E06846BF
:101D4000290030310155641C68467C210155641C12
:101D5000684600210155641C3900684600F0BEFB4E
:101D600061A100F0BBFB6846FFF7C3FA401E69465D
:101D700008706946002008561F280ADA20216846A4
:101D800000F066FD012807D100F093FD002803D183
:101D9000FAE7544800F04AFE09B0F0BDFCB58DB03A
:101DA00006000D00169F0024684630210155641C72
:101DB0001598002803D0684623210155641C684605
:101DC0007C210155641C0B2E10DB30000A21FFF72B
:101DD0002BFD303069460855641C30000A21FFF79E
:101DE00023FD303168460155641C04E0684631002B
:101DF00030310155641C68467C210155641C0B2D53
:101E000010DB28000A21FFF70FFD30306946085526
:101E1000641C28000A21FFF707FD30316846015590
:101E2000641C04E06846290030310155641C684692
:101E30007C210155641C684600210155641C0D99E4
:101E4000254800F0B7FA00F00FFB0200274908A868
:101E500000F028FB08A9684600F040FB0E991E48D8
:101E600000F0A8FA00F000FB0200214908A800F0E9
:101E700019FB08A9684600F031FB1499164800F0D8
:101E800099FA00F0F1FA02001A4908A800F00AFBDA
:101E900008A9684600F022FB002F02D010A100F034
:101EA0001DFB6846FFF725FA401E69460870694623
:101EB000002008561F280ADA2021684600F0C8FCD6
:101EC000012807D100F0F5FC002803D1FAE7054806
:101ED00000F0ACFD0FB0F0BD00007A4428430000D4
:101EE00024000000304100007C240000304300004A
:101EF0003843000040430000FEB5C0B00600002794
:101F0000002468460021017700200D900EA8C8210A
:101F100000F0B6FD41980B90489805904A980C90B7
:101F2000002E00D18EE13000FFF7E3F906907078C3
:101F3000232800D084E106983018401E0078242819
:101F400000D07DE1002007007FB2069887420CDABE
:101F50007FB2F05D7C2806D164B2042060430EA9F4
:101F60007FB20F50641C7F1CEEE7684604770020A8
:101F700004000020040069461C20085664B2844214
:101F800000DB5DE164B220000421FFF74DFC002975
:101F900010D164B2042060430EA90818426864B2EC
:101FA000042060430EA90958491C300000F098F93C
:101FB000009043E164B220000421FFF735FC0129C1
:101FC00010D164B2042060430EA90818426864B2BC
:101FD000042060430EA90958491C300000F080F924
:101FE00005002BE164B220000421FFF71DFC02294B
:101FF00000D092E00098012800D08EE064B2042066
:1020000060430EA90858401C64B2042161430EAA23
:102010005118496888420FDA315C502901D1049087
:1020200008E0315C492901D1019003E0315C442989
:1020300000D10390401CE7E7019A0499491C300045
:1020400000F003F900F01EFD0022A44BFFF708FD8D
:1020500000F031FD0A90039A0199491C300000F00C
:10206000F4F800F00FFD00229C4BFFF7F9FC00F0A4
:1020700022FD099064B2042060430EA9081842684A
:102080000399491C300000F0E0F800F0FBFC00224E
:10209000924BFFF7E5FC00F00EFD0890019A0499C1
:1020A000491C300000F0D1F800F0ECFC02000B00FD
:1020B000B64800F0BBFC0B98A84229DB1820684307
:1020C0004099081818380121016018206843409988
:1020D00008181438009901601820684340990818BE
:1020E0001038056018206843409908180C380A9980
:1020F0000160182068434099081808380999016060
:102100001820684340990818001F0899016095E05D
:102110009F4800F08BFC002095E064B22000042171
:10212000FFF782FB02293ED1009802283BD164B21E
:10213000042060430EA90818426864B2042060437A
:102140000EA90958491C300000F07FF800F09AFCF5
:102150000022624BFFF784FC00F0ADFC0290059872
:10216000A8421BDB1020684342990818103801214F
:10217000016010206843429908180C3800990160EA
:1021800010206843429908180838056010206843F9
:1021900042990818001F029901604FE07D4800F045
:1021A00045FC00204FE064B220000421FFF73CFB17
:1021B000022943D10098032840D164B2042060432F
:1021C0000EA90818426864B2042060430EA9095899
:1021D000491C300000F039F800F054FC00223F4B5D
:1021E000FFF73EFC00F067FC02900598A84220DB58
:1021F0000298002100F090FC1BD1102068434999FF
:102200000818103801210160102068434999081806
:102210000C38009901601020684349990818083863
:1022200005601020684349990818001F01210160CA
:1022300004E0594800F0FAFB002004E0641C9AE630
:10224000012000E0002043B0F0BDF3B581B01400E0
:10225000019F0026002500210298864202DA7F1C99
:10226000761CF9E738782D280AD038782B2807D043
:102270003878302802DB38783A2801DB00202CE05F
:1022800038782D2803D1012005007F1C03E0387821
:102290002B2800D17F1C002006003878302814DB62
:1022A00038783A2811DAA6420FDA3C4800F082F872
:1022B000010000913878303800F03EFC009900F0C1
:1022C00054FC01007F1C761CE7E7002D04D0344845
:1022D00000F070F80100FFE70800FEBD00408F40ED
:1022E000F0B503001D000026002400278E4202DA0C
:1022F0006D1C761CFAE728782D280AD028782B2820
:1023000007D02878302802DB28783A2801DB002023
:102310003BE028782D2803D1012004006D1C03E048
:1023200028782B2800D16D1C002006002878302842
:1023300024DB28783A2821DA96421FDA002C0AD1C9
:102340001848874205D2184887420FD12878382884
:102350000CDB164819E01348874205D21248874221
:1023600004D12878392801DB11480EE00A204743C0
:10237000287830383F186D1C761CD7E7002C03D026
:102380000020C0434743FFE73800F0BD084300008A
:1023900060410000C0410000904100000000204169
:1023A000000080BF9A19000099190000FFFF00008B
:1023B0000000FFFF30B405004D400122D207154058
:1023C0004B180418240E30D01B0E34D0FF2C36D0FE
:1023D000FF2B3CD0E4180002090210431143000A0D
:1023E000090A9446C2B24A43000AC3B24B43000AE8
:1023F0004843110A5B18190A12061B0C1A43120AE9
:10240000091801D44918641E080A7F3C23DBFE2CFE
:1024100008DAE405090611436346994160412843FF
:1024200030BC7047FF20C005F9E728001B0EFF2BCA
:10243000F6D1D043F4E72800FF2CF1D1F9E74002B0
:10244000F7D1FF2B01D14902F3D1E005E7E7D80529
:102450004902E4D0EDE743020020641CDFD15B12A7
:102460009B1CDCD9D805DAE70122D2070118090E36
:102470007F3910D449421F310FD4001805D2C00152
:102480001043C84000D5D0437047C0011043C84036
:1024900005D440427047002070470042F3D5100039
:1024A000704700000CB41CB5040004A8019000940F
:1024B00001AB0A006946084878441C30FDF7ACFFC0
:1024C000009900220A70002801D40098001B02B075
:1024D000019910BC03B008474BF6FFFF020000E073
:1024E000521C1378002BFBD10B781370002B02D0F9
:1024F000521C491CF8E7704780B5964B0022012119
:10250000012000F060FC00220121852000F066FD22
:1025100000220021522000F061FD8F49522000F07E
:10252000E2FDC848006820218843C64908600321AD
:10253000232000F035F80521252000F031F80F2187
:10254000262000F02DF80121212000F029F801219A
:10255000222000F025F80522BB492A2000F047F888
:102560002021312000F01CF8FF21E22000F018F8B3
:102570000522B649302000F03AF80F21242000F05F
:102580000FF8FF21E12000F00BF800F093F8AD48C0
:10259000006820210143AB48016000F050F802BD03
:1025A00030B583B005000C006846057101A8447081
:1025B0000220009001AB01AA0121012000F065FC7E
:1025C000684600793EBD30B583B005000C00684612
:1025D00005710220009001AB01AA0121012000F049
:1025E00054FC01A840782070684600793EBD31B5A2
:1025F00084B00D001400039401200290002001908B
:102600000095002304AA0121012000F07FFC684608
:10261000007C05B030BD31B584B00D0014000394CA
:1026200001200290019500200090002304AA0121BE
:10263000012000F06BFC6846007C05B030BD10B591
:1026400088B005A8A4490CC90CC0083908386846E8
:102650003021017405200390012002900020019098
:1026600005A80090002304AA0121012000F04EFCDF
:10267000684610210174052003900120029005A8EE
:10268000019000200090002304AA0121012000F005
:102690003DFC00200400E4B2052C08DAE4B205A8F1
:1026A000005DC22801D0002002E0641CF3E7012095
:1026B00008B010BD80B56348006820218843614997
:1026C000086001212120FFF76BFF01212220FFF785
:1026D00067FF05225C492A20FFF789FF0F21202090
:1026E000FFF75EFFFF212720FFF75AFFFF21E220BF
:1026F000FFF756FF5348006820210143514801600D
:1027000076480221017001BD80B54E480068202145
:1027100088434C49086005224C493020FFF767FF89
:10272000052249492A20FFF762FF0E212020FFF7EA
:1027300037FF444800682021014342480160674850
:1027400001210170AF4800900098411E00910028BF
:10275000FAD101BD20BCBE0003000A00F8B5060096
:102760000D000024A8480078002868D0002D66D00D
:10277000202D2FD22A00A548007820214843A449C3
:102780000918300000F00EFDA3480068202188439E
:10279000A14908609D480078401C9C4908709B48EE
:1027A0000078502802DB9948002101709948007890
:1027B000070096480078FFB2B84202D19248002143
:1027C0000170954800682021014393480160641915
:1027D000200035E020228D480078202148438C4994
:1027E0000918300000F0DEFC2036203D20348A48F5
:1027F0000068202188438849086084480078401C8C
:102800008249087081480078502802DB7F48002107
:1028100001708048007807007C480078FFB2B84219
:1028200003D179480021017002E07748012101704D
:1028300079480068202101437748016092E7200031
:10284000F2BD000000F10FF8D4E5FF1FCCE5FF1F3B
:1028500038B504000D00714800210170002C01D032
:10286000002D01D1002023E06D48006800281ED112
:10287000681E40096B490860694804601748007881
:10288000012801D0FFF740FF6348006820218843FA
:102890006149086020222100A020FFF7A8FE5E48C1
:1028A0000068202101435C480160012000E0002015
:1028B00032BD00B55A48006800280BD1594800685D
:1028C000002807D155480078002801D0012002E0F7
:1028D000022000E0002000BD2043000008F1FF1F9F
:1028E00010B582B069460720FFF76DFE6846017893
:1028F0002720FFF755FE68460078400639D5464840
:10290000006820218843444908603F480078022835
:1029100025D020223F480078202148433C4909180F
:102920006120FFF778FE3B480078401C3949087069
:1029300038480078502802DB3648002101703348BF
:102940000078040033480078E4B2A04203D12E4856
:102950000221017007E02C480121017003E0FF21F2
:10296000E220FFF71DFE2C480068202101432A4881
:1029700001606846007880062FD52A480068002844
:1029800009D127480021016027480078022824D077
:10299000FFF790FE21E024480078012801D0FFF7DE
:1029A000B3FE1F48006820301D4908601D480068BC
:1029B000401E1C49086018480068202188431649B9
:1029C0000860202216480168A020FFF710FE124878
:1029D0000068202101431048016068460078C00665
:1029E0000ED50E4801210170FF21E120FFF7D8FD2F
:1029F0000B48002101600B4800210160FFF75AFEDF
:102A000013BD0000FF0F00000BF1FF1F09F1FF1FB6
:102A100098E6FF1F0AF1FF1F00F10FF80CF1FF1FEE
:102A200098F0FF1F9CF0FF1F08F1FF1F0EB400B5C8
:102A300082B003A900916B4602000121034878444B
:102A40000A30FDF7E9FC029906B008478518000036
:102A5000130030B414001500103902D310393CC0F3
:102A6000FCD2490700D30CC000D504C0890002D3B2
:102A70000280801C002900D5027030BC7047000025
:102A80000022E5E7012212060118CA420AD28A4250
:102A90000DD83822120609098918C20FD20711432E
:102AA0004007704700D049080909014301E0C10F00
:102AB000C90700207047012252054B18DA4201D99C
:102AC000581570475B0D0722D2019B1A10D9FF2BB6
:102AD0001DD2DB050122D2070A4013430903020D70
:102AE0001143490AC200524100D9491CC818704715
:102AF0000AD1800A0A0302435212921C04D9D30756
:102B00000B40D00518437047C80FC0077047C80F67
:102B10000002FF30C0057047944602000A43921835
:102B200008D0884206D1012212060018D042084679
:102B300000D88042624670479D21020008D5F446C5
:102B4000524200F005F80122D2071043604700000E
:102B50000AD002D4491E9218FCD5C905100A1206E3
:102B6000524100D3012A484170470122D207030095
:102B70004B402ED4431A01D2C01AC91830B44B1896
:102B80000418240E1B0E22D0FF2C20D0E31A182B81
:102B90001DDC09021143C40D641E0002104394465B
:102BA0001925ED1A0A00AA40D940451801D36D082D
:102BB000A41CE405D209280A2D062A436546AA4129
:102BC000604103181B0EFF2B01D3C00DC00530BCA4
:102BD0007047514001E05140CCE7431A03D2C01A7C
:102BE000C9185040514030B44B1809021143041821
:102BF000240E1B0E40D0FF2C3AD025009D410BD354
:102C00001ED8C50D4002401A0BD3ED050100400A45
:102C1000C90591416841DAE7C50D40024918401ADB
:102C2000D5D001214008491C0018FCD58C4204D3A2
:102C30006D1A000AED054019C9E7E8051040C6E71E
:102C4000182DC4DCAC1C0D00E140E5414D40012DC8
:102C50004941C40D00021043451A01D46D19954332
:102C6000641EE405280A2D069541604130BC70477A
:102C7000FF2BACD1D843AAE72442A8D10020A6E775
:102C800030B540B2002802D001280FD01DE049B273
:102C900001290AD19C4B1B680124A343D2B2140022
:102CA000E407E40F1C43984B1C600EE049B2012975
:102CB0000AD1C44B1B681024A343D2B214011025BF
:102CC0002C401C43BF4B1C60FFE730BDF3B587B001
:102CD00069461C20085604214843BB490858059002
:102CE000002002900020C043019069461C20085635
:102CF000002806D1B5480068FA21890048430090B1
:102D00000AE069461C200856012805D1B048006831
:102D1000FA2189004843009000200500EDB2092DFA
:102D200044DA00980221A940089A5143FEF77FFD3A
:102D30000400082C38D200980221A9406143FEF714
:102D400076FD07000898381A00F06CFA0600019822
:102D5000864207D20196EDB20395601E0290049759
:102D6000002E23D0641C00980221A940089A5143E8
:102D7000FEF75DFD0400082C16D200980221A94040
:102D80006143FEF754FD07000898381A00F04AFA2C
:102D900006000198864207D20196EDB20395601EA7
:102DA00002900497002E01D06D1CB7E7039800072E
:102DB000000F0299090170220A40024305984270EF
:102DC000049809B0F0BDF8B505000E0017006DB20B
:102DD000042068437C490C586DB2002D1DD17D48FC
:102DE00000688021C90301437A480160802189007D
:102DF000612000F05DF980218900622000F058F91F
:102E000080218900632000F053F9F0072AD50122C0
:102E10000121602000F0E2F824E06DB2012D1DD107
:102E20006C4800688021090401436A4801608021E0
:102E30008900822000F03CF980218900812000F087
:102E400037F980218900832000F032F9F00709D595
:102E500001220121842000F0C1F803E0C9215E486D
:102E600000F0E4F97FB2002F09D15020E07000207B
:102E7000A0700099280040B2FFF728FF04E040202E
:102E8000E0700020A0700020F2BDF7B507001E0022
:102E90007FB2042078434C490D580024287800283C
:102EA00001D1012000E000202878000601D5A87992
:102EB000FAE70022694604200956380040B2FFF7BD
:102EC000DFFE002004000898844213D228780028EE
:102ED00001D1012000E000200298005DA87128784F
:102EE0000006FCD5002E02D0A879305500E0A87964
:102EF000641CE8E70122694604200956380040B204
:102F0000FFF7BEFEF7BD0000C0F00FF8F7B51F00D9
:102F1000099E694600200856042148432A490D5855
:102F200000242878002801D1012000E00020287822
:102F3000000601D5A879FAE700226946042009565F
:102F40006B4600201856FFF79BFE002004000A98ED
:102F5000844213D22878002801D1012000E000200B
:102F60000298005DA87128780006FCD5002F02D0D9
:102F7000A879385500E0A879641CE8E7002004002F
:102F80000B98844213D22878002801D1012000E058
:102F900000200898005DA87128780006FCD5002E56
:102FA00002D0A879305500E0A879641CE8E7012236
:102FB0006946042009566B4600201856FFF760FE4C
:102FC000F7BD000000F10FF844E6FF1FB4F0FF1F4B
:102FD000ACF0FF1F348004402840000070B50400AE
:102FE0000D0016006DB2002D15D1E4B22000401185
:102FF000042148432D490858E4B221004911042214
:1030000051432A4A515849690122E306DB0E9A408E
:103010009143416142E0E4B2200040110421484361
:1030200022490858E4B221004911042251431F4AA1
:10303000515849690122E306DB0E9A400A43426176
:10304000F6B2002E15D1E4B220004011042148430D
:103050001649085800680121E206D20E91408843C3
:10306000E4B22100491104225143104A515808602A
:1030700014E0E4B220004011042148430B490858F1
:1030800001680120E206D20E90400843E4B221001C
:10309000491104225143054A5158086080214900D2
:1030A0002000C0B200F004F870BD0000E4E5FF1F8E
:1030B00010B4254A126880239B000400E4B264091E
:1030C000A3401343204A1360C0B2C206D20E0423A9
:1030D0005A43C0B203005B11042463431B4CE35802
:1030E000995010BC704710B4174A126880239B0097
:1030F0000400E4B26409A3401343134A13600A00B6
:10310000134911400A00C0B2C106C90E0423594335
:10311000C0B203005B11042463430C4CE3585B58BA
:10312000E021C90019401143C0B2C206D20E0423E7
:103130005A43C0B203005B1104246343034CE358B9
:10314000995010BC704700003880044030E6FF1FE3
:10315000FFF8FFFF10B50400200080218900FEF772
:1031600063FB002903D01E210B4800F05FF80B48D9
:10317000046010BD38B504000D0008480068084917
:10318000884203D03021044800F050F864B2042093
:10319000604303490D5031BD7840000008ED00E068
:1031A00000E0FF1FF0B504000D001700002F38D01D
:1031B0003800C01DC008060038000821FEF737FBA4
:1031C00000290BD0022921D024D3042916D019D3E9
:1031D00006290BD00ED3072904D022E028782070CE
:1031E0006D1C641C287820706D1C641C287820706D
:1031F0006D1C641C287820706D1C641C287820705D
:103200006D1C641C287820706D1C641C287820704C
:103210006D1C641C287820706D1C641C761E002EAA
:10322000DCD1F0BD002800D54042704738B504001D
:103230000D002A0021000E48FFF7F8FBFEE738B525
:1032400004000D00210049B2002000F08BF920009D
:1032500032BD704710B507480468E4B209206043E6
:1032600005490A18E4B221000448FFF7DFFB10BD4E
:103270003C42000004ED00E010E4FF1FC4400000E9
:10328000F1B584B00F006846AD49818169461020D0
:103290000856002803D0022825D012D335E0A948CB
:1032A00000688021C9000143A6480160C02189004F
:1032B0000F20FFF7FDFEC02189000E20FFF7F8FE6A
:1032C00023E0A04800688021090101439D48016076
:1032D000C02189004320FFF7EBFEC0218900442074
:1032E000FFF7E6FE11E0974800688021490101439D
:1032F00094480160C02189006220FFF7D9FEC021F7
:1033000089006320FFF7D4FEFFE7694610200856C6
:10331000002800D0ABE08C4800688C4901408A4806
:103320000160894800688A490143874801608948EB
:103330000078F3210140874801708748002101701F
:1033400086480068864948430221FEF76DFA0290DC
:1033500004200400E4B2212C64DA0298E4B22100D3
:10336000491C7943FEF763FA0500ADB28020800165
:10337000854255DA0298ADB2E4B22100491C694396
:10338000FEF755FA01900198C01B012803DB019854
:103390003900461A02E00198C01B4642B6B2002E20
:1033A00005D1684605806846E4B244803AE0684644
:1033B0008089B6B2864206D2684686816846058014
:1033C0006846E4B244806D1CADB280208001854225
:1033D00026DA0298ADB2E4B22100491C6943FEF737
:1033E00026FA01900198C01B012803DB01983900DF
:1033F000461A02E00198C01B4642B6B2002E05D123
:10340000684605806846E4B244800BE068468089DF
:10341000B6B2864204D2684605806846E4B244806B
:10342000641C97E75C480078E02101400C00684686
:10343000008880B2000AC006C00E204356490870BA
:10344000564869460988017055480078E0210140D6
:103450000C0068464088C006C00E204350490870E2
:103460003C4800780C2101433A48017066E0694607
:1034700010200856042148434A490858C178F320CF
:1034800008406A461021515604225143454A51587A
:10349000C87069461020085604214843414908581D
:1034A0000021817040480068FA2189004843029059
:1034B000029810217943FEF7BAF9694608806846F8
:1034C000008880218901884202DB684637490180F3
:1034D00069461020085604214843324908580078AC
:1034E000E02101400C006846008880B2000AC00656
:1034F000C00E20436A461021515604225143294AE6
:10350000515808706946102008560421484325493F
:1035100008586946098841706946102008560421F8
:10352000484320490858C1780C2008436A461021B6
:103530005156042251431B4A5158C87005B0F0BD82
:10354000FFFF00003480044004800440FFFFFFF3CD
:103550000000010403A0064002A00640A8F0FF1FDF
:1035600040420F0000B540B2002806D1104A127840
:103570001206FBD50F4A11700DE040B204224243FF
:10358000084B9A5812791206F7D540B204224243EA
:10359000044B9A58D17100BD00A0064001A006401E
:1035A0000AA006404CE6FF1FB4F0FF1FFF1F0000FB
:1035B00004A0064007A0064030B5040064B2042011
:1035C000604386490D5A64B2012C00DA04E164B20A
:1035D0000D2C00DB00E1ADB26F2D03DAB148002104
:1035E000017073E0ADB2DD2D03DAAE480121017048
:1035F0006CE0ADB2FF204C30854203DAA9480221CD
:10360000017063E0ADB2FF20BA30854203DAA5480D
:10361000032101705AE0ADB27148854203DAA14836
:103620000421017052E0ADB26E48854203DA9D4834
:10363000052101704AE0ADB26B48854203DA994832
:103640000621017042E0ADB29748854203DA954801
:10365000072101703AE0ADB29448854203DA9148FF
:103660000821017032E0ADB29148854203DA8D48FD
:10367000092101702AE0ADB28E48854203DA8948FB
:103680000A21017022E0ADB28B48854203DA8548F9
:103690000B2101701AE0ADB28848854203DA8148F7
:1036A0000C21017012E0ADB28548854203DA7D48F5
:1036B0000D2101700AE0ADB28248854203DA7948F3
:1036C0000E21017002E077480F21017064B20420DE
:1036D00060434249085A73490978491CFEF7A4F827
:1036E0000500ADB2292D03DA6E480021417073E068
:1036F000ADB2512D03DA6B48012141706CE0ADB2DF
:10370000792D03DA67480221417065E0ADB2A12D41
:1037100003DA6448032141705EE0ADB2C92D03DADB
:1037200060480421417057E0ADB2F12D03DA5D48E5
:103730000521417050E0ADB2FF201A30854203DA16
:1037400058480621417047E0ADB2FF204230854223
:1037500003DA5448072141703EE0ADB2FF206A30E1
:10376000854203DA4F480821417035E0ADB2FF20B1
:103770009230854203DA4B48092141702CE0ADB20A
:10378000FF20BA30854203DA46480A21417023E01F
:10379000ADB2FF20E230854203DA42480B2141708E
:1037A0001AE0ADB24848854203DA3E480C21417028
:1037B00012E0ADB24548854203DA3A480D21417026
:1037C0000AE0ADB24248854203DA36480E21417024
:1037D00002E034480F21417030BD0000F8E5FF1FC2
:1037E00027020000950200000303000010B504004A
:1037F000200040B2FFF7E0FE3648006880218900D3
:10380000014334480160274800780007254949787A
:103810000904E022D2020A4002432F4802602F48E6
:10382000812101702E48242101702E48BA21017097
:103830002D480078C006FBD42B480078C0B20C217C
:1038400001400829F8D164B20420604327490818D0
:103850008078C006C00E2649087064B20420604318
:1038600022490818C078C006C00E402101432148F3
:1038700001701D4800788006FBD51B480078400683
:10388000FBD518480221017017480078C0B20C21FE
:1038900001400C29F8D164B2042044431348005B72
:1038A000C0B210BD2CE6FF1F71030000DF03000053
:1038B0004D040000BB04000029050000970500002E
:1038C0000506000073060000090200003102000036
:1038D00059020000388004404480044000500640F3
:1038E000014006400040064006400640F8E5FF1F44
:1038F00004400640054006405245530000000000C9
:10390000005245530000000000004E4D49000000E9
:10391000000000486172644661756C745245530042
:103920000000000000524553000000000000524516
:10393000530000000000005245530000000000004A
:1039400052455300000000000052455300000000A3
:103950000000524553000000000000535643616CC4
:103960006C00000052455300000000000052455317
:1039700000000000000050656E64535600000053C4
:1039800079735469636B0000444D413000000000BE
:1039900000444D41310000000000444D4132000020
:1039A000000000444D41330000000000444D41340C
:1039B0000000000000524553000000000000465483
:1039C000464100000000004C56445F4C5657000032
:1039D0004C4C57000000000000493243300000000A
:1039E00000004932433100000000005350493000CC
:1039F00000000000535049310000000000554152C2
:103A00005430000000005541525431000000005570
:103A10004152543200000000414443300000000095
:103A200000434D5030000000000054504D30000065
:103A300000000054504D31000000000054504D3241
:103A400000000000005254430000000000005254E7
:103A5000435F5365630000504954000000000000BC
:103A6000493253300000000000555342300000003E
:103A7000000044414330000000000054534930002E
:103A8000000000004D43470000000000004C50546F
:103A90004D5200000000524553000000000000504D
:103AA00054410000000000005054435F5054440053
:103AB0000000000000000000010000000000000005
:103AC00002000000666606400000C03F00F00FF8EC
:103AD00040F00FF880F00FF8C0F00FF800F10FF889
:103AE00000000A1D300003004000020042000309EC
:103AF0004400030A4800020350000206600001006F
:103B0000800002188800010A9400010DC800011A03
:103B1000DC00011F000100000090044000A00440F0
:103B200000B0044000C0044000D0044000600740E2
:103B30000070074000A0064000B0064000C00640EC
:103B400002040101B8F0FF1F08F1FF1FB8F0FF1FCA
:103B5000B8F0FF1FB8F0FF1F95E6FF1F7CE6FF1FC0
:103B60000000000000000000000000000000000055
:103B70000000000000000000000000000000000045
:103B80000121C206D20E9140134A1160704710B550
:103B90000024122004007E480068E040C00705D5DC
:103BA0000120A0407A490860FEF79AFE10BD80B55A
:103BB0007848FEF73BFFFEF79FFC002803D17648CC
:103BC000FEF734FFF7E775492F20FFF7D3FA1F20E0
:103BD000FFF7D6FF01BD000000E100E030B5F5B011
:103BE0000025FFF7E4FF00200400052C1FDA182051
:103BF00060434FA9081800214160182060434FA975
:103C0000081800218160182060434FA9081800217E
:103C1000C160182060434FA90818002101611820D5
:103C200060434FA9081800214161641CDDE70020B2
:103C30000400102C13DA102060430FA9081800218B
:103C40004160102060430FA90818002181601020F6
:103C500060430FA908180021C160641CE9E7002037
:103C60000400032C13DA1020604303A90818002174
:103C700041601020604303A90818002181601020D2
:103C8000604303A908180021C160641CE9E72021F2
:103C90006DA8FEF763FD0500002D42D003200290C1
:103CA00003A80190102000900FAB05224FA96DA82A
:103CB000FEF722F9069801282BD13948FEF7B6FE07
:103CC000012002900120019036480068009036489B
:103CD00003683648026804210520FEF75FF80120DA
:103CE00000900123324A01210620FDF767FF0120E1
:103CF000009001232F4A02210620FDF75FFF0120DB
:103D0000009001232C4A03210620FDF757FF0020D5
:103D100006900A98012804D128A201210920FDF764
:103D2000CDFF012000900123FE22920501210420F5
:103D3000FDF744FF0120009001238022D2050221DB
:103D40000420FDF73BFF0120009001231C4A0321C2
:103D50000420FDF733FF012000900123194A0421BC
:103D60000420FDF72BFF012000900123164A0521B6
:103D70000420FDF723FF012000900123114A0621B2
:103D80000420FDF71BFF0A2000F03CF87FE700004D
:103D9000A0B0044000410000EC4100008F3B000057
:103DA000F8420000A0F0FF1FE0E5FF1FDCE5FF1F69
:103DB000000020410000C8423333234141434B00FF
:103DC0000000B041000004420000344210B504007D
:103DD000002C16D080204004844203D329210F48B0
:103DE000FFF724FA0E48002101600E4804600E48D7
:103DF000002101600A480521016009480068C003EC
:103E0000FBD510BD10B504002000441E002804D0CE
:103E100006480068FFF7DAFFF6E710BDD43F000060
:103E200010E000E014E000E018E000E0ACF0FF1F5C
:103E300080B500F0BFF800F04EF800F005F8FFF78D
:103E400008FAFFF7CBFEFEE780B547480078000789
:103E500005D54548007808210143434801700C20EE
:103E6000FFF7C4FC414908604048006840490968C0
:103E7000090F491CFDF7DBFC3E4908603D4800681E
:103E8000FA21890048433C4908603B4800683849AA
:103E90000968090C4907490F491CFDF7C8FC374957
:103EA000086000F006F8E12149020020FFF7E8F978
:103EB00001BD334800688021090101433048016099
:103EC0003048A021C90001602F480068402101430B
:103ED0002D4801607047F0B583B02C482C498842CA
:103EE0000FD00020040082204000844209D2042028
:103EF0006043264904226243254B9A580A50641CA9
:103F0000F1E72248FFF726F922480700224805007A
:103F1000224801900198401B04002000441E002804
:103F200004D0287838706D1C7F1CF6E71C4806000A
:103F30001C4800900098801B04002000441E0028AC
:103F400003D000203070761CF7E717481749184A4D
:103F5000531A1C0023005C1E002B04D00B78037046
:103F6000491C401CF6E7F7BD02D00740A8F0FF1F30
:103F700044800440B0F0FF1FACF0FF1FB4F0FF1FFF
:103F8000388004400CB004400480044000E0FF1F6F
:103F90000000000010E4FF1FF8380000803B000024
:103FA00098E6FF1F0DF1FF1F0DF1FF1F1004000029
:103FB00010040000054806490968016004480068CB
:103FC0000C2188430249086070470000A4F0FF1FDD
:103FD00000810440463A5C50726F6A6563745F43C7
:103FE0006F6D706F746974696F6E5C362E4D7946B3
:103FF0007265657363616C5F313074685C436F64D4
:10400000655C4750494F5F4C45445F4B4C32365CD2
:10401000436869705C5372635C4D4B4C5F537973BA
:104020005469636B2E630000463A5C50726F6A6598
:1040300063745F436F6D706F746974696F6E5C3623
:104040002E4D79467265657363616C5F31307468BB
:104050005C436F64655C4750494F5F4C45445F4B20
:104060004C32365C436869705C5372635C4D4B4CF8
:104070005F7370692E630000463A5C50726F6A6528
:1040800063745F436F6D706F746974696F6E5C36D3
:104090002E4D79467265657363616C5F313074686B
:1040A0005C436F64655C4750494F5F4C45445F4BD0
:1040B0004C32365C436869705C5372635C6D697343
:1040C000632E63000A2A2A2A2A64656661756C7465
:1040D0005F69737220656E7465726564206F6E200F
:1040E000766563746F722025642A2A2A2A2A0D0AAB
:1040F0000A257320496E7465727275707400000031
:104100000A0A0A2A2A2A2A2A2A2A2A2A2A2ACEDE17
:10411000CFDFC4A3BFE94E524632344C30312BB20C
:10412000E2CAD42A2A2A2A2A2A2A2A2A2A2A2A0017
:10413000696E204E52465F4449592E63206F6620B7
:104140002253656E645061636B5F53686F727422B3
:10415000206973206F766572666C6F77212100008D
:10416000696E204E52465F4449592022556E706157
:10417000636B616765222070696473657474696E2E
:1041800067206F766572666C6F77202121000000D2
:10419000696E204E52465F4449592022556E706127
:1041A000636B616765222077686F6C6573657474F3
:1041B000696E67206F766572666C6F7720212100CB
:1041C000696E204E52465F4449592022556E7061F7
:1041D000636B616765222064697970617261206F29
:1041E000766572666C6F7720212100000A20204ED0
:1041F0005246D3EB4D4355C1ACBDD3CAA7B0DCA3E7
:10420000ACC7EBD6D8D0C2BCECB2E9BDD3CFDFA1EE
:10421000A30A000010B5074979441831064C7C44C4
:10422000163404E0081D0A68891888470100A14275
:10423000F8D110BD2C0000003800000041737365F8
:104240007274696F6E206661696C656420696E20A6
:104250002573206174206C696E652025640A000056
:1042600097D3FFFF780A000098E6FF1F00000000C8
:1042700000F00BF8002801D0FFF7CCFF0020C0466B
:10428000C046FFF7ABFC00F002F80120704780B594
:1042900000F002F801BD00000746384600F002F8C1
:1042A000FBE7000080B5C046C046024A1100182056
:1042B000ABBEFBE726000200686A6C747A4C000013
:1042C0006E616E004E414E00696E6600494E4600BA
:1042D00038B505000C00200000F006F8A04200D020
:1042E0000025280032BD000080B50249FEF7A7FF77
:1042F00002BD00BF58E6FF1F492077696C6C207330
:10430000656E640A000000007265637620503A20F2
:1043100025640A00C046C046C046C046FFF7A8FF55
:10432000C2C2C2C2C20000002534647C000000008A
:10433000502534640000000049253464000000006A
:10434000442534647C0000000000000000000000F0
:10435000000000000000000000000000000000005D
:1043600000000000FFFFFFFFFFFFFFFF0000000055
:10437000000000000000000000000000000000003D
:10438000000000000000000000000000000000002D
:10439000FFFFFFFFFFFF0000000000000000000023
:1043A000000000000000000000000000000000000D
:1043B00000000000000000000000000000000000FD
:1043C00000000000000000000000000000000000ED
:04000005000043159F
:00000001FF
