:10000000F8FF002011040000EB290000EB2900009C
:10001000EB290000EB290000EB290000EB29000090
:10002000EB290000EB290000EB290000EB29000080
:10003000EB290000EB290000EB290000EB29000070
:10004000EB290000EB290000EB290000EB29000060
:10040000FFFFFFFFFFFFFFFFFFFFFFFFFEFFFFFFFD
:1004100062B603F053FEFEE72DE9F04FA1B082462D
:1004200002AE002017461D46029170620DF144088D
:100430000AE017F8011B0298D0470290002800F04C
:10044000D482706A401C7062387808B9706ACEE253
:100450002528EED10020F06030617061B061F0615C
:10046000306201E040F0010017F8011F2029F9D0A7
:1004700023290DD02B2904D02D2906D030290AD0CC
:100480000CE040F0020080B2EEE740F00400FAE732
:1004900040F00800F7E740F01000F4E72A290DD1FA
:1004A00029680A1D2A600968F162002904D54942B9
:1004B00040F00400F16280B27F1C13E00021F16281
:1004C0000BE0F16A6FF00043994205D001EB810324
:1004D00002EB43013039F1627F1C3A78A2F130011E
:1004E0000A29EED339782E2903D04FF0FF31B162BB
:1004F0001EE017F8011F2A2906D129680A1D2A6063
:100500007F1C0968B16213E00021B1620BE0B16A9F
:100510006FF00043994205D001EB810302EB4301E8
:100520003039B1627F1C3A78A2F130010A29EED34A
:1005300030860FF6BC20397800F078FD08B117F846
:10054000010B8DF83A009DF83A00682802BF39780F
:100550006829622005D06C2804BF38786C2803D144
:1005600071208DF83A007F1C11A8B0603978B1F184
:10057000250023D02038022840F2B980133800F03B
:10058000E1800B3800F07781401E00F02081401E92
:10059000022840F2AC80001F00F01981401F7BD080
:1005A000401E00F0CF80401E22D0C01E0BD0801E07
:1005B00000F0C880C01E00F0C58064E1F068411CF6
:1005C000F160252169E12868011D29600068B26A8F
:1005D0007060002A02D500F039FD07E0002100F02C
:1005E00051FD00281ABF7168401AB06A306156E1A7
:1005F0002868011D296000210068CDE900014FF045
:100600003C0E11A87060DDE9000111B908B9B26AA9
:10061000CAB10206120FA0EB02123032AEF1010392
:10062000D2B29E463A2AA8BF2732000903F8082012
:1006300040EA0170090908BF002804D0726811ABB4
:1006400073449A42E5D311A971447160CEF13C0024
:10065000B16A3061884207DA081AB0614FF6EF716B
:10066000308E084030861AE1002940F1188196F852
:10067000301001F01401102940F01181F16AF26884
:10068000891AB269891AA1EB000EBEF1010FC0F2FE
:100690000681C6F818E002E19DF83A00622818D0F9
:1006A000682806D06A280BD06C2819D0712807D08A
:1006B00016E02868011D29600068716A0180EEE07B
:1006C0002A68101D28601268706AC117C2E900010B
:1006D000E5E02868011D29600068716A0170DEE0AC
:1006E0002868011D29600068716A0160D7E02868E8
:1006F000C01D20F00700286000F108022A60D0E940
:100700000023CDE90023002B04D5F068421CF260E1
:100710002D220DE0308E820704D5F068421CF26075
:100720002B2205E0C00705D5F068421CF2602022AC
:1007300000F80820F06811AA8018706000A800F086
:10074000E3F9ACE09DF83A006C2808BF2A6811D0A4
:10075000712808BF2A6802D02A686A280AD1D21DE7
:1007600022F007022A60144604F108022A60D4E944
:10077000002303E0131D2B6000231268CDE9002342
:10078000682808BF92B207D0622808BFD2B203D04F
:10079000742818BF7A2802D10023CDE9002396F8E7
:1007A000300000075FD5DDE90023002B08BF002AD9
:1007B00059D041F02000782855D1F068302200F857
:1007C0000820401C421CF26000F808104BE09DF825
:1007D0003A0062280CD0682810D06A281AD06C28F9
:1007E00023D0712816D074281FD07A280CD01CE092
:1007F0002868021D2A6090F900201AE02868021D6E
:100800002A60B0F9002014E02868021D2A60002345
:1008100002680FE02868C01D20F00700286000F182
:1008200008022A60D0E9002304E02868021D2A603B
:100830000268D317CDE90023002B04DAF068421CCC
:10084000F2602D220DE0308E820704D5F068421C44
:10085000F2602B2205E0C00705D5F068421CF2606B
:10086000202200F80820F06811AA8018706000A803
:1008700000F0C0F813E0F068411CF16029680A1D1F
:100880002A60096809E0F068421CF260252200F83D
:10089000082021B1F068421CF26000F80810F06AEC
:1008A000F168401AB169401A3169401AF169401A79
:1008B0007169401A316AA0EB010996F830007F1C7B
:1008C000400710D420208DF84000002409E00123C7
:1008D00010AA00A9504600F073FB002840F0858064
:1008E000641C4C45F3DBF4680DF1440B0AE01BF883
:1008F000011B0298D0470290002876D0706A401CF5
:100900007062641E002CF2D130208DF840004FF050
:10091000000BB46909E0012310AA00A9504600F0B9
:100920004FFB002861D10BF1010BA345F3DB3469C8
:10093000D6F804B00AE01BF8011B0298D0470290D9
:10094000002852D0706A401C7062641E002CF2D1E4
:1009500030208DF840004FF0000BF46909E00123CE
:1009600010AA00A9504600F02BFB00283DD10BF146
:10097000010BA345F3DB30697168746900EB010B6F
:1009800009E01BF8011B0298D047029068B3706A17
:10099000401C7062641E002CF3D130208DF84000A2
:1009A0004FF0000B346A08E0012310AA00A950465A
:1009B00000F006FBC8B90BF1010BA345F4DB96F878
:1009C000300040077FF540AD20208DF84000002426
:1009D00000E0641C4C45BFF637AD012310AA00A906
:1009E000504600F0EDFA0028F3D04FF0FF3021B070
:1009F000BDE8F08F2DE9FA47064682B035690A4610
:100A00006F2A08BF082705D041F02000782814BFBE
:100A10000A271027D6E900013C2480468946642A2B
:100A200018BF692A05D1002903DAD8F1000869EB5B
:100A30004909B9F1000F08BFB8F1000F0CD1306BB4
:100A400050B9082F3BD196F83800000737D5302031
:100A50003B2485F83B0032E0CDE90089FB17404696
:100A600049463A4600F03AFBB846A8FB0023DDE9C8
:100A70000089A8EB02023032A4F1010AD2B2544636
:100A80003A2A03DB9DF80830513B9A180AF80520F2
:100A900080465FEA010908BFB8F1000F03D0F06893
:100AA00061198842D8D3082F09D196F83800000779
:100AB00005D5605D302802D0641E30206055C4F139
:100AC0003C00B0616119F160316B884207DA081AA5
:100AD00030624FF6EF71308F0840308710E0002908
:100AE0000ED596F8381001F01401102908D1716B59
:100AF0007269891A326A891A081A0128A8BF3062F5
:100B000004B0BDE8F08700002DE9F34F8BB0D0E9C9
:100B10000089006B01AF002802D50B98062106E082
:100B200004BF41F02000672802D10B980121016326
:100B30000B984168C1F30A5040F2FF72904220D1F5
:100B4000080302BF0B98006800280AD10B98032104
:100B500081619DF8300061381A2858D30FF2A44102
:100B600009E00B98032181619DF8300061381A2853
:100B70004AD30FF288410B98C068032200F026FB8D
:100B800001E1012807DA0B9800F05BFB012802DB8A
:100B900000230026EEE00B9A526840F2FE3161F32A
:100BA0001E520B994A6040F2FE31461A40464946B1
:100BB0000022002300F066FB38BF89F0004936B2FE
:100BC00047F2975070434A49DFF828B190FBF1F69D
:100BD00036B2C6F107079246012F1BDBF80707D58F
:100BE00052465B464046494600F064FB80468946D3
:100BF0007F105046594652465B4600F05BFB8246EA
:100C00008B46002FEAD126E00FF2EC31B3E70FF26A
:100C1000F031B0E77F420024374D12E0F80707D5E6
:100C200052465B462046294600F044FB04460D46EA
:100C30007F105046594652465B4600F03BFB8246C9
:100C40008B46002FEAD14046494622462B4600F00B
:100C500003FC804689469DF8300040F02005662D53
:100C60000CBF06F10A0006200B99096B4718142FD8
:100C7000A8BF132730208DF804000DF10504DFF81C
:100C80007CB0012F3CDB4046494600F009FD01469F
:100C900004F1080204234FF00A0CB1FBFCFC0CEB3E
:100CA0008C04A1EB4401303102F8011D0A21BCFB88
:100CB000F1FE0EEB8E04ACEB44043034714602F8C6
:100CC000014D5B1EE7D1083F02F10804012FD8DB7C
:100CD00000F0FCFC02460B464046494600F004FD8D
:100CE00000225B4600F0E6FA80468946CBE700BF6B
:100CF000A0860100000024400000F03F84D7974107
:100D00000DF10500201A0DF1050702E0401E761EC8
:100D10007F1C39783029F9D0662D02D136B2711C8A
:100D200003E0652D0CBF012100210B9A126B8B187B
:100D30001BB29842B8BF03461BB219001AD48142B5
:100D400004DAC85D3528A8BF392000DA3020CA1976
:100D5000521E00E05B1E12F80159491E8542F9D06F
:100D6000392802D1C85D401CC855002902D57F1E14
:100D70005B1C761C36B29DF830100B9800961BB2A7
:100D80003A4600F003F80DB0BDE8F08F2DE9F047CA
:100D900086B006468A4690461D4600F082FD406AAF
:100DA000376B90F80090012D02DA01250FF25828D8
:100DB0004AF02000BDF93840662808BF641C13D0F3
:100DC000672840F0878014F1040F72DBBC4270DAB0
:100DD00096F83800641C000702D4BD42B8BF2F4605
:100DE00024B23F1B48BF0027F068B16924B2012C30
:100DF00021DA30234A1C0B54012F03DA96F83810FD
:100E0000090702D502F80090521CB261E742B8BF50
:100E10007C4224B26142E7197162AF42B8BF3D46DD
:100E20002DB2F5612A46B3694146181800F0CEF993
:100E3000781BB062ADE00818A54216DA2A46414692
:100E400000F0C4F9B1696918B161601B7062012FCB
:100E500003DA96F83800000705D5F06801F800902D
:100E6000F069401CF061B76293E02246414600F011
:100E7000ADF9B06920182D1B012F03DA96F8381050
:100E8000090703D5F16800F80190401C2DB2B0614C
:100E9000AF42B8BF3D46F3682DB22A4604EB0801C5
:100EA000C01800F093F9B0692818B061781B70621F
:100EB0006FE0BD4204DA96F83810090758BF2F4694
:100EC0007F1E48BF0027BAF1670F0CBF4FF0650ABD
:100ED0004FF0450AB169F06818F8013B0B544A1C01
:100EE000012F05DA96F83810090758BFB26115D5F9
:100EF00002F80090531CB361012F0FDB6D1E2DB261
:100F0000AF42B8BF3D462DB22A464146181800F000
:100F10005DF9B0692818B061781B7062B069F1683A
:100F200000EB0108200008F801AB03D42B2008F8DF
:100F3000010B03E02D2108F8011B6442002502AFDC
:100F400008E00A2200A800F0C5FC019807F8010B90
:100F50006D1C009C21B20129F3DA022D06DA4AF059
:100F60002000652804BF302008F8010B4DB930205F
:100F700008F8010B07E06D1E02A8285C303008F865
:100F8000010B012DF7DAB069F1684018A8EB0000F9
:100F9000F06196F8380000F0140010280DD1706947
:100FA000B1690818716A0818F1690818B16A081857
:100FB000716B8842BCBF081A306206B0BDE8F0878A
:100FC000F8B504460D4616461F46002004E0E86AC0
:100FD000401CE8627F1E002047B116F8011BA8687C
:100FE000A047A8600028F2D14FF0FF30F2BD00000A
:100FF000686A6C747A4C00006E616E004E414E005F
:10100000696E6600494E4600300050F8041B61B11D
:1010100050F8042BD30744BFA9F101039A18002309
:1010200042F8043B091FFAD1EFE770470278C9B2D2
:101030008A421AB11CBF10F8012FF9E718BF00202F
:1010400070470268531C03601170704700F1010380
:10105000810704D010F8011B89B18107FAD1026819
:10106000B2F10131914311F0803F04BF50F8042FD9
:10107000F6E710F8011B11B110F8011BFBE7C01ACD
:1010800070470000C9B2830706D0521E22D310F861
:10109000013B9942F7D11FE0083A13D302F1040251
:1010A00041EA012141EA014150F8043B121F21BFEE
:1010B0004B40A3F1013C2CEA030C1CF0803FF3D021
:1010C000C9B2001F083210F8013B521E28BF91EA36
:1010D000030FF8D818BF0120401E70471B4213D1E0
:1010E000094236D12AB18446B0FBF2F002FB10C2AD
:1010F000704700F0F7BBFCD30022002370470B00C1
:101100000200002100207047904271EB030CF6D3DF
:1011100070B5B1FA81F4B3FA83F52C1BA340C4F186
:10112000200532FA05F63343A2405FF00046E64060
:1011300002E05B085FEA3202841A71EB030524BF08
:10114000204629467641F4D302000B0030000021EE
:1011500070BD012ACFD970B5140C20D0B1FA81F43A
:10116000B2FA82F5C4F120046419B4F12006D6D392
:10117000B2405FF00044F440002502E052085FEA0C
:101180003303C61A71EB020E24BF30467146644128
:101190006D41F3D302000B002000290070BD0C4606
:1011A000B1FBF2F102FB11452D0445EA1045B5FBF8
:1011B000F2F402FB145580B240EA0545B5FBF2F0AB
:1011C00002FB105240EA044070BD000062B38B077E
:1011D00008D0521E11F8013B00F8013B00F02480BA
:1011E0008B07F6D1830740F0208000BF103A07D369
:1011F00030B4B1E83810103AA0E83810F9D230BC59
:10120000530724BFB1E80810A0E8081044BF51F804
:10121000043B40F8043BD20724BF31F8022B20F8EE
:10122000022B44BF0B7803707047083A07D3B1E82C
:101230000810083A40F8043B40F804CBF7D25307B3
:10124000E4E730B4436803F0004201211B031B0BA9
:10125000436004BF0368002B08D10DE00368DD0F75
:1012600045EA440444605B000360491E4468E302AD
:10127000F4D523031B0B436043681A4342600846BE
:1012800030BC70474FF4001C1CEB410F94BF1CEBAB
:10129000430F09E041EA030C50EA4C0C52EA0C0CF3
:1012A00003D2994208BF9042704714BF8B428242DA
:1012B00070470000B0B581EA030C0CF0004C40F21E
:1012C000FF7515EA11541DBF15EA1357AC42AF4222
:1012D00039E0E41923EA455343F48013C90241F08D
:1012E000004141EA505EC7021100A7FB020200283C
:1012F0004FF00000EEFB01204FF00001E3FB07215F
:1013000018BF42F00102401800214941E3FB0E01E1
:10131000A4F580640F0302D252004041494154F1C8
:1013200001046CDD470872F1004250F1000051EBFE
:101330000451A1F580115CBF41EA0C01B0BD4CEA3B
:1013400005510020B0BD05EA1357AC4214BFAF42AF
:1013500041E050EA410E1CBF52EA430E02E06146F2
:101360000020B0BD24423C441BD15FEA070EF6D0FA
:10137000090302BF01460020AEF1140EB1FA81F755
:10138000AEEB070401FA07FE0C37C7F1200100FAA3
:1013900007F7C8404EEA000E23EA455343F4801392
:1013A000A2E733F00043B3FA83F704BFB2FA82FE38
:1013B00077440B3FE41BB7F1200E2FBF02FA0EF368
:1013C000BB40C7F1200E22FA0EFE38BF43EA0E03DF
:1013D000BA40641C82E750EA410E14BF52EA430E41
:1013E0006FF000014FF4001717EB430F8ABF194647
:1013F00017EB410FB5E74CEA05510020B0BDD4F121
:101400000104B4F120070FDAC4F12007520828BF05
:1014100042F0010210FA07F501FA07F7E1BF2A438B
:10142000E0403843E1400FE0352C98DCC7F1200460
:1014300052EA400220FA07F218BF42F0010231FAE4
:1014400007F0A1400A43002172F1004250F1000070
:1014500051EB0C01B0BD0000F0B540F2FF7581EA20
:10146000030C0CF0004C15EA11541DBF15EA13577C
:10147000AC42AF42E5E0BC41C1F31301C3F3130337
:10148000801A994143F4801304D2641E40004941FC
:1014900080185941C90241EA5051B1FBF3F603FBF0
:1014A0001611A2FB0675D7EBC020A94102D2761E09
:1014B00080185941C90241EA5051B1FBF3FE03FBC8
:1014C0001E11A2FB0E75D7EBC020A94103D2AEF1CD
:1014D000010E80185941890241EA9051760546EA89
:1014E0008E2EB1FBF3F603FB1611A2FB0675D7EBAC
:1014F0008020A94102D2761E80185941C90241EAD2
:1015000050514EEA060EB1FBF3F603FB1611A2FB97
:101510000675D7EBC020A94102D2761E801859412A
:10152000C90241EA5051B1FBF3F703FB1711A2FBCB
:101530000735D3EBC020A94167F100070CBF00427B
:1015400047F0010766F3D5274FEA1E31B80814F5B6
:10155000806412DDBD0775F1004250EB0E5051EB77
:10156000045111F5801F5CBF41EA0C01F0BD4CF045
:101570007F6141F0E0410020F0BDBD076D0840EA09
:101580000E5041F48011D4F10104B4F120060ADABE
:10159000C4F120060200E04001FA06F3E1401843DE
:1015A000B24015430EE0342C13DCC6F1200445EAAA
:1015B00040056D0820FA06F2154321FA06F0A14015
:1015C0000D43002175F1004250F1000051EB0C0178
:1015D000F0BD00205FEA0C01F0BDCFB992185B416D
:1015E000B3FA83F704BFB2FA82F6BF190B3FB7F123
:1015F00020062FBF02FA06F3BB40C7F1200622FAED
:1016000006F638BF3343BA401CB1E419641E33E711
:101610007F4231F00041B1FA81F404BFB0FA80F6A4
:10162000A4190B3CB4F120062FBF00FA06F1A1402B
:10163000C4F1200620FA06F638BF3143A0403C1B17
:101640001AE7AC421ABF05EA1357AF4212E050EA5C
:1016500041061CBF52EA4306BFE750EA4107304645
:1016600061461CBF41EA0551F0BD52EA430C08BF78
:10167000C143F0BD00204FF4001616EB410F98BF98
:1016800016EB430F08BF16EB410F24BFC14305E023
:1016900016EB430F0CBF61464CEA0551F0BD00004C
:1016A000400D40EAC120490080F00D8040F000402C
:1016B000490DA1F58061491C05D4D1F11F0154BF2A
:1016C000C840C01770474FF000007047010000BFCE
:1016D00009D0B0FA80F18840C91CC1F584610905C0
:1016E00001EBD0214005704770B44FF0004591EAFE
:1016F000030F44BF6B4000F0F7B800BF841A71EBD2
:10170000030604D26E40001BB141121973414FF41D
:10171000001C1CEB410F34BF7CEB430684E00C0D36
:10172000A4EB1356362E7DDC012E43DC45EAC323A1
:1017300043EA525312BFD20292025B08240545EAE3
:10174000C12141EA5051D2EBC020994125D407D1A3
:10175000B0FA80F610FA06F164D00020203608E0D6
:10176000B1FA81F6B140C6F1200220FA02F211432B
:10177000B0404FEAF474B4EB465434F001064FEA3B
:1017800074040AD8D6F50016760D04F00044F04033
:1017900061FA06F25040F1404840C00A40EA415028
:1017A00021F0004128BF5FEA500550F1000044EBF2
:1017B000D12137E045EAC323DB0A45EAC121C90A42
:1017C000B6F120050EDD42EA0242120CC5F12006F8
:1017D00003FA06F6EB4042EA06056D42984161F1D4
:1017E00000010DE062FA06F5F240554063FA06FC8E
:1017F00082EA0C02F3405A406D42904161EB0301D2
:1018000011F4801F05D1641E620502D06D004041B5
:10181000494121F48011430875F1004350F1000063
:1018200041EB045170BC70471CEB410F15D223F003
:10183000004352EA43060BD04FEA4C0CBCEB410F7D
:1018400004D80C0D661E342EB7DDEBE7801A9941E3
:1018500050EA410608BF0021E4E708BF1CEB430F34
:1018600028BF6FF00001DDE780B5134800F0A6F84F
:101870000FF24801016041608160C1600161416116
:1018800081610FF23C0242628162C1620163416385
:101890000FF2300282630FF23402C26301644164CA
:1018A00001BD10B5044800F089F80446206808B965
:1018B000FFF7DAFF204610BD5418FF1F000000009C
:1018C0002E00000066616C7365000000747275651F
:1018D0000000000091FBF2F303FB1211C0E900319C
:1018E0007047000070470000841A71EB030603D2B2
:1018F000001BB141121973414FF4001C1CEB410F46
:1019000034BF7CEB430443E00C0DA4EB1356352E9F
:1019100050DC45EAC323DB0A45EAC121C912B6F10E
:1019200020050DDD63FA05F6EB4086EA0305124259
:1019300018BF45F00105C01851F100010CD213E0A9
:1019400062FA06F5F2405540F3415A40B340F34085
:101950005A408018594107D349085FEA30005FEACE
:10196000350528BF45F0010501F58011420875F1E4
:10197000004250F1000041EB045170BC4FF4001CD8
:101980001CEB410F38BF70470020090D0905704757
:101990001CEB410F10D252EA43060BD0BCEB410FB7
:1019A00005D80C0DAB43661E342EB5DD02E0AB430B
:1019B0008018594170BC704770BC70477047000078
:1019C0000000000000000000000000000000000017
:1019D00000000000000000000000000000004E6F4A
:1019E0006E4D61736B61626C65000000004861724E
:1019F000644661756C740000000000004D656D4D1B
:101A0000616E6167656D656E740000427573466155
:101A1000756C740000000000000055736167654636
:101A200061756C7400000000000000000000000000
:101A300000000000000000000000000000000000A6
:101A40000000000000000000000000000000000096
:101A50000000000000000000000000000000000086
:101A60000000000000535643616C6C000000000051
:101A70000000000044656275674D6F6E69746F7297
:101A80000000000000000000000000000000000056
:101A9000000050656E645356000000000000000016
:101AA000005379735469636B00000000000000006C
:101AB000444D4130000000000000000000000044E0
:101AC0004D41310000000000000000000000444DC6
:101AD00041320000000000000000000000444D41C1
:101AE000330000000000000000000000444D4134BD
:101AF0000000000000000000000000444D413500DF
:101B000000000000000000000000444D41360000CD
:101B1000000000000000000000444D4137000000BC
:101B20000000000000000000444D413800000000AB
:101B300000000000000000444D413900000000009A
:101B4000000000000000444D413130000000000062
:101B50000000000000444D41313100000000000051
:101B600000000000444D4131320000000000000040
:101B7000000000444D41313300000000000000002F
:101B80000000444D4131340000000000000000001E
:101B900000444D413135000000000000000000000D
:101BA000444D415F4572726F720000000000004DAD
:101BB000434D0000000000000000000000004654FB
:101BC000464C00000000000000000000005265616B
:101BD000645F436F6C6C6973696F6E004C56445F51
:101BE0004C565700000000000000004C4C5700000D
:101BF000000000000000000000005761746368648A
:101C00006F6700000000000000524E470000000017
:101C100000000000000000004932433000000000D6
:101C200000000000000000493243310000000000C5
:101C30000000000000005350493000000000000088
:101C40000000000000535049310000000000000077
:101C50000000000053504932000000000000000066
:101C600000000043414E305F4F525F4D425F62754E
:101C7000660043414E305F4275735F4F66660000F9
:101C80000043414E305F4572726F720000000000E9
:101C900043414E305F54785F5761726E696E67439F
:101CA000414E305F52785F5761726E696E67434193
:101CB0004E305F57616B655F557000000052657371
:101CC0006572766564353100000000005265736509
:101CD000727665643532000000000043414E315F8A
:101CE0004F525F4D425F6275660043414E315F4225
:101CF00075735F4F666600000043414E315F457269
:101D0000726F72000000000043414E315F54785FF3
:101D10005761726E696E6743414E315F52785F570B
:101D200061726E696E6743414E315F57616B655FEB
:101D30005570000000526573657276656435390030
:101D400000000000526573657276656436300000ED
:101D500000000055415254305F52585F5458000003
:101D6000000055415254305F4552520000000000BF
:101D70000055415254315F52585F545800000000E2
:101D800055415254315F4552520000000000005549
:101D9000415254325F52585F545800000000554180
:101DA0005254325F4552520000000000005541522B
:101DB00054335F52585F545800000000554152544C
:101DC000335F455252000000000000554152543428
:101DD0005F52585F54580000000055415254345F20
:101DE00045525200000000000055415254355F52E8
:101DF000585F54580000000055415254355F455219
:101E00005200000000000041444330000000000088
:101E100000000000000041444331000000000000C9
:101E20000000000000434D503000000000000000A2
:101E300000000000434D5031000000000000000091
:101E4000000000434D503200000000000000000080
:101E5000000046544D30000000000000000000006B
:101E60000046544D3100000000000000000000005A
:101E700046544D3200000000000000000000004306
:101E80004D5400000000000000000000000052540B
:101E900043000000000000000000000000526573D5
:101EA0006572766564383300000000005049543094
:101EB0000000000000000000000000504954310004
:101EC00000000000000000000000504954320000F3
:101ED00000000000000000000050495433000000E2
:101EE00000000000000000005044423000000000EC
:101EF00000000000000000555342300000000000C8
:101F0000000000000000555342444344000000001C
:101F10000000000000454E45545F313538385F54AD
:101F2000696D6572454E45545F5472616E736D699B
:101F3000740000454E45545F5265636569766500DF
:101F40000000454E45545F4572726F7200000000FC
:101F50000049325330000000000000000000000083
:101F6000534448430000000000000000000000440B
:101F70004143300000000000000000000000444128
:101F800043310000000000000000000000545349ED
:101F90003000000000000000000000004D4347003A
:101FA00000000000000000000000004C5054696D6B
:101FB00065720000000000000000526573657276D3
:101FC000656431303200000000504F52544100002F
:101FD0000000000000000000504F5254420000007A
:101FE00000000000000000504F5254430000000069
:101FF000000000000000504F525444000000000058
:102000000000000000504F52544500000000000046
:1020100000000000526573657276656431303800E7
:1020200000000052657365727665643130390000D6
:1020300000005265736572766564313130000000CE
:1020400000526573657276656431313100000000BD
:10205000526573657276656431313200000000525A
:102060006573657276656431313300000000526536
:102070007365727665643131340000000052657317
:102080006572766564313135000000005265736514
:1020900072766564313136000000005265736572F6
:1020A00076656431313700000000526573657276E1
:1020B00065643131380000000052657365727665E1
:1020C000643131390000000000800340009003407B
:1020D00000800B4000F00F4040F00F4080F00F40B8
:1020E000C0F00F4000F10F40F0000A1D3000180052
:1020F00032001801600018186400181A6E00181FCA
:10210000780013187D00131A8200131C8C000E1225
:1021100096000E15A0000E18AA000E1BB4000E1E8D
:10212000C8000C1CE1000B1EFA000A1F0001090880
:102130000090044000A0044000B0044000C00440EF
:1021400000D0044000C0024000D0024000C00A405D
:1021500000A0064000B0064000C0064000D0064087
:1021600000A00E4000B00E406A6E6B6C676D4E4F63
:102170003435363700000000010000000000000088
:102180000200000002040101FC17FF1F4C18FF1F92
:10219000FC17FF1FFC17FF1FFC17FF1F110CFF1F71
:1021A000F80BFF1F0000000000000000000000000E
:1021B000000000000000000000000000000000001F
:1021C000000000002DE9FD4F96B00C00DFF8480636
:1021D00000684FF47A7148431899B0FBF1F705A8ED
:1021E000DFF838164022FFF701F804A8DFF83016B0
:1021F0000A680260002001905FF0FF399DF95800E5
:10220000002841D1DFF81C06006850F48050DFF848
:10221000141608604FF400710F2000F00FFB4FF40C
:102220000071102000F00AFB4FF40071112000F043
:1022300005FBE00704D54FF400710E2000F0FEFA14
:10224000A00704D54FF40071432000F0F7FA6007AF
:1022500004D54FF40071422000F0F0FA200704D5B5
:102260004FF40071412000F0E9FAE00604D54FF484
:102270000071402000F0E2FAA0066CD54FF44071E6
:10228000372000F0DBFA66E09DF95800012833D1D1
:10229000DFF89005006850F40050DFF888150860FA
:1022A0004FF400712B2000F0C9FA4FF40071302078
:1022B00000F0C4FA4FF40071312000F0BFFAE007DB
:1022C00004D54FF400712A2000F0B8FAA00704D515
:1022D0004FF40071802000F0B1FA600704D54FF48C
:1022E0000071852000F0AAFA200734D54FF4007160
:1022F000862000F0A3FA2EE09DF95800022825D18F
:10230000DFF82405006850F48050DFF81C150860E1
:102310004FF40071352000F091FA4FF4007136202F
:1023200000F08CFA4FF40071372000F087FAE007D4
:1023300004D54FF40071342000F080FAA0070AD5CC
:102340004FF400716F2000F079FA04E07B21DFF890
:10235000DC0400F0E0FA9DF95800DFF8D41451F8DD
:10236000200040F6014101609DF95800DFF8C014DB
:1023700051F82000DFF8BC14C1629DF95C00002810
:1023800040F0A1809DF95800DFF8A41451F8200016
:10239000DFF8A414016000200500EDB2102D20D25A
:1023A00000200600F6B2042E19D2EDB205A850F8AE
:1023B0002500F6B204A9715C48438246BAEB0700D7
:1023C00000F03CFB8046C84507D2C146EDB20195FE
:1023D000F6B20296B9F1000F03D0761CE2E76D1C4D
:1023E000DBE7DFF8340400684FF47A714843019961
:1023F00005AA52F82110029A04ABD25C5143B0FBFB
:10240000F1F00390DFF8100400684FF47A7148434C
:102410000399B0FBF1F0400807005FF0FF30814600
:102420000F208DF8010003208DF802000020834664
:102430005FFA8BFBBBF1100F28D201201BF10101C9
:1024400088408246B7FBFAF0401E40088DF8000035
:102450009DF80000042816D29DF800004000401CA2
:1024600000FB0AFABAEB070000F0E8FA8046C8451C
:1024700009D2C1468DF801B09DF800008DF8020028
:10248000B9F1000F02D01BF1010BD1E70298000453
:1024900010F44030019911F00F0108439DF801102C
:1024A000090311F4704108439DF80210890511F4E5
:1024B0004001084350F060509DF95810DC4A52F832
:1024C0002110C86007E09DF95800D94951F8200053
:1024D0005FF07851C1609DF95800D54951F820004E
:1024E0000068400840009DF95810D14A52F8211068
:1024F0000860039819B0BDE8F08FF0B4049C002583
:1025000040B2CB4E56F82060CA4FF76240B2C84E78
:1025100056F82060366856F4406640B2C44F57F80B
:1025200020703E6040B2C24E56F82060F66AB60394
:10253000E6D400263500661EB5422FD249B20E04FD
:1025400016F47C16AF5C3E4356F0004640B2B84FDE
:1025500057F820707E6340B2B54E56F82060F66A98
:10256000B603F8D5002B06D040B2B14E56F8206025
:10257000B66BEE5404E040B2AD4E56F82060B66B38
:1025800040B2AB4E56F82060F66A56F4003640B2C0
:10259000A74F57F82070FE626D1CCCE749B20E04BD
:1025A00016F47C16AF5C3E4356F0006640B2A04F76
:1025B00057F820707E6340B29D4E56F82060F66A50
:1025C000F600F8D540B29A4E56F82060F66AB60387
:1025D000F8D5002B06D040B2954E56F82060B66B69
:1025E000EE5404E040B2924E56F82060B66B40B212
:1025F0008F4E56F82060F66A56F4003640B28C4F83
:1026000057F82070FE62F0BC70472DE9F041069C3F
:10261000079D089E099F5FF0000C40B2DFF810E2B2
:102620005EF820E0DFF80C82CEF82C8040B2DFF8B4
:1026300000E25EF820E0DEF800E05EF4406E40B2BA
:10264000DFF8EC8158F82080C8F800E040B2DFF8ED
:10265000E0E15EF820E0DEF82CE05FEA8E3EDCD4BC
:102660005FF0000EF446B44541D249B25FEA014E34
:102670001EF47C1E1CF8028058EA0E0E5EF0004E1E
:1026800040B2DFF8AC8158F82080C8F834E040B29E
:10269000DFF89CE15EF820E0DEF82CE05FEA8E3E99
:1026A000F5D5002B09D040B2DFF884E15EF820E0D8
:1026B000DEF838E00CF803E006E040B2DFF870E145
:1026C0005EF820E0DEF838E040B2DFF864E15EF862
:1026D00020E0DEF82CE05EF4003E40B2DFF85081EE
:1026E00058F82080C8F82CE01CF1010CBBE75FF023
:1026F000000EF446B7F1010EF44541D249B25FEA4B
:10270000014E1EF47C1E1CF8048058EA0E0E5EF08A
:10271000004E40B2DFF8188158F82080C8F834E045
:1027200040B2DFF80CE15EF820E0DEF82CE05FEA72
:102730008E3EF5D5002D09D040B2DFF8F4E05EF80A
:1027400020E0DEF838E00CF805E006E040B2DFF803
:10275000E0E05EF820E0DEF838E040B2DFF8D0E0FC
:102760005EF820E0DEF82CE05EF4003E40B2DFF8D8
:10277000C08058F82080C8F82CE01CF1010CB9E7A3
:1027800049B25FEA014E1EF47C1E1CF8048058EA30
:102790000E0E5EF0006E40B2DFF8948058F8208094
:1027A000C8F834E040B2DFF888E05EF820E0DEF8F8
:1027B0002CE05FEACE0EF5D540B2DFF874E05EF8AB
:1027C00020E0DEF82CE05FEA8E3EF5D5002D09D042
:1027D00040B2DFF85CE05EF820E0DEF838E00CF8AC
:1027E00005E006E040B2DFF848E05EF820E0DEF801
:1027F00038E040B2DFF838E05EF820E0DEF82CE0A8
:102800005EF4003E40B2DFF8288058F82080C8F817
:102810002CE0BDE8F0810000F00DFF1F78440000BF
:10282000BC4600003C8004403080044080430000EF
:10283000940BFF1F00000A1A00003F8010B4294AC1
:1028400012684FF40073C0B24409A3401A43254BE9
:102850001A60C0B24211244B53F82220012310F019
:102860001F04A340C2F8A030C0B210F01F02C0B2D3
:1028700043111D4C54F8233043F8221010BC70470C
:1028800010B4184A12684FF40073C0B24409A34050
:102890001A43144B1A60C0B24211134B53F8222052
:1028A000012310F01F04A340C2F8A03031F4E0610E
:1028B000C0B210F01F02C0B243110B4C54F82330C9
:1028C00053F8222012F4E0621143C0B210F01F024C
:1028D000C0B24311044C54F8233043F8221010BC0A
:1028E0007047000038800440800BFF1FDFF800F0C5
:1028F000450CFF1FDFF800F0750CFF1FBFF34F8F73
:102900004648006810F4E0604549084343490860C0
:10291000BFF34F8FFEE738B504000D00002000F034
:1029200091F82A0021003F4800F0C4F8002000F090
:10293000A6F84FF47A7000F0EAF8F2E738B5040030
:102940000D00210049B2032000F004FA200032BD3E
:1029500010B50024042000F017FA042000F04AFA11
:10296000002841D1002000F06DF8042000F042FA68
:10297000012801D101200400002000F080F82A483D
:1029800000F098F84FF4FA7000F0C1F8E4B2012CAE
:10299000EBD1042000F02EFA0028E6D1042000F04C
:1029A00029FA002806D1002000F069F8642000F020
:1029B000AEF8F3E7042000F01DFA012806D100204C
:1029C00000F05DF8322000F0A2F8F3E7174800F0BD
:1029D00071F8FFF78BFF642000F099F80020FFF7F3
:1029E00089FFFFF78BFFC0E710BD10B510480468E2
:1029F000012000F027F8012000F041F8E4B20F2098
:102A00000C4900FB0412E4B221000B4800F052F81C
:102A10004FF47A7000F07BF8EDE700000CED00E079
:102A20000400FA05A445000074460000D8450000E3
:102A300004ED00E01004FF1FB8440000002848BF68
:102A40004042704710B5040064B2042C07DA01223A
:102A5000012164B21648205C00F0E4F90EE0042085
:102A600004002000441E40B2002807D001220121AA
:102A700064B20F48205C00F0D5F9F2E710BD10B544
:102A8000040064B2042C05DA64B20948205C00F04A
:102A900020FA0CE0042004002000441E40B200286C
:102AA00005D064B20248205C00F013FAF4E710BDD0
:102AB000C00BFF1F0EB400B582B003A900910246FF
:102AC00000AB0121034878440A30FDF7A5FC06BCA1
:102AD0005DF810FB7D1B000010B50400002C15D024
:102AE000B4F1807F03D329210F48FFF714FF0F486B
:102AF000002101600E4804600E48002101600B486F
:102B00000521016009480068C003FBD510BD10B560
:102B100004002000441E002804D007480068FFF786
:102B2000DBFFF6E710BD00002C42000010E000E0E3
:102B300014E000E018E000E0E80DFF1F2DE9F84385
:102B400004000D0064B2002C08D0022C2CD018D345
:102B5000042C4FD03BD3052C5FD071E0DFF810027E
:102B6000006850F48060DFF8081208604FF440718C
:102B70006620FFF763FE4FF440716720FFF75EFEAB
:102B80005EE0DFF8EC01006850F40060DFF8E0116F
:102B900008604FF440714320FFF750FE4FF440713E
:102BA0004420FFF74BFE4BE0DFF8C401006850F40F
:102BB0008050DFF8BC1108604FF440716320FFF7CC
:102BC0003DFE4FF440716220FFF738FE38E0DFF839
:102BD000A001006850F40050DFF8941108604FF431
:102BE00040715020FFF72AFE4FF440715120FFF74B
:102BF00025FE25E0DFF87C01006850F48060DFF8F6
:102C0000741108604FF440714E20FFF717FE4FF427
:102C100040714F20FFF712FE12E0DFF85801006804
:102C200050F40060DFF84C1108604FF440718920C7
:102C3000FFF704FE4FF440718820FFF7FFFDFFE728
:102C400064B2DFF8340150F82400C07810F0F300CB
:102C500064B2DFF8241151F82410C87064B2DFF8B0
:102C6000180150F8240064B2DFF80C1151F8241058
:102C70008978817064B2002C02D064B2012C07D133
:102C8000DFF8F80000684FF47A714843814606E0A7
:102C9000DFF8EC0000684FF47A7148438146280160
:102CA000B9FBF0F00600B6B2B6F5005F02D341F60C
:102CB000FF700600B9FBF5F0B6B2B0EB06100700E6
:102CC000BFB2202F03D3DC212E48FFF724FE64B2CD
:102CD000294850F82400007810F0E0008046B6B291
:102CE000300A10F01F0050EA080064B2224951F87F
:102CF0002410087064B2204850F82400467064B272
:102D00001D4850F82400807A10F0E000804664B23C
:102D1000194850F8240017F01F0151EA0801817288
:102D200064B2154850F82400007C50F0880064B26A
:102D3000114951F82410087464B20F4850F8240067
:102D4000C07850F00C0064B20B4951F82410C870E0
:102D5000BDE8F18340B2084A52F8202012791206E9
:102D6000F8D540B2044A52F82020D17170470000D3
:102D70003480044028800440A00BFF1FE80DFF1F93
:102D8000F00DFF1FD443000010B5040064B2082CFE
:102D90000DDA0022002164B22148205C00F042F8E4
:102DA000032164B21E48205CFFF76AFD14E008208E
:102DB00004002000441E40B200280DD00022002153
:102DC00064B21748205C00F02DF8032164B2144867
:102DD000205CFFF755FDECE710BD10B5040064B2B0
:102DE0000F48205C00F091F8002801D1002000E09D
:102DF000012010BD10B50400200040B2FFF7EDFF28
:102E000000280AD10A20FFF782FE200040B2FFF717
:102E1000E4FF002801D1002000E0012010BD0000E7
:102E2000B80BFF1F70B504000D0016004FF4807141
:102E30002000C0B2FFF702FD6DB2002D11D1E4B247
:102E40006011404951F82000E4B261113D4A52F846
:102E500021104969012214F01F039A4091434161F6
:102E600036E0E4B26011374951F82000E4B2611154
:102E7000344A52F821104969012214F01F039A4084
:102E800011434161F6B2002E11D1E4B260112D4917
:102E900051F820000068012114F01F02914088437E
:102EA000E4B26111274A52F82110086010E0E4B240
:102EB0006011244951F820000068012114F01F021C
:102EC00091400843E4B261111E4A52F82110086093
:102ED00070BD10B50400E4B260111A4951F8200029
:102EE000406914F01F01C840C00703D47B21164875
:102EF000FFF711FDE4B26011124951F820000121E1
:102F000014F01F029140C16010BD10B50400E4B27E
:102F100060110C4951F82000406914F01F01C840AD
:102F2000C00703D58C210848FFF7F5FCE4B2601117
:102F3000044951F82000006914F01F01C84010F046
:102F4000010010BD240BFF1F2C43000080B55FF46F
:102F5000E133002201210020FFF734F90022012192
:102F60009C20FFF75FFF002200219B20FFF75AFF04
:102F7000DFF8E4149B20FFF783FCDFF8E004002176
:102F800001600321232000F035F80521252000F001
:102F900031F80F21262000F02DF80121212000F02A
:102FA00029F80121222000F025F80522DFF8B014CD
:102FB0002A2000F046F82021312000F01BF8FF21E4
:102FC000E22000F017F80522DFF89814302000F016
:102FD00038F80F21242000F00DF8FF21E12000F047
:102FE00009F800F092F8DFF874040121016000F0A4
:102FF00050F802BD30B583B004000D008DF80440D8
:103000008DF805500220009001AB01AA012100209B
:10301000FFF773FA9DF804003EBD30B583B004009D
:103020000D008DF804400220009001AB01AA01219F
:103030000020FFF762FA9DF8050028709DF8040053
:103040003EBD31B584B00C001500039501200290FF
:1030500000200190009404AB04AA01210020FFF796
:10306000D4FA9DF8100005B030BD31B584B00C0025
:10307000150003950120029001940020009004ABFC
:1030800004AA01210020FFF7C0FA9DF8100005B046
:1030900030BD10B588B005A8DFF8CC130CC90CC042
:1030A0000839083830208DF81000052003900120E1
:1030B00002900020019005A80090002304AA01219D
:1030C0000020FFF7A2FA10208DF8100005200390D1
:1030D0000120029005A8019000200090002304AA7E
:1030E00001210020FFF791FA00200400E4B2052C32
:1030F00008D2E4B205A8205CC22801D0002002E07A
:10310000641CF3E7012008B010BD80B5DFF84C0364
:10311000002101600522DFF848132A20FFF791FF04
:1031200001212120FFF766FF01212220FFF762FF26
:103130000F212020FFF75EFFFF212720FFF75AFF16
:10314000FF21E220FFF756FFDFF8100301210160A5
:10315000DFF818030221017001BD80B5DFF8FC0221
:10316000002101600120FFF7D2FC0522DFF8F412F4
:103170003020FFF766FF0522DFF8E4122A20FFF770
:1031800060FF01212120FFF735FF01212220FFF7F9
:1031900031FF1A212420FFF72DFF05212520FFF7FD
:1031A00029FF0F212620FFF725FF20213120FFF7DF
:1031B00021FF0E212020FFF71DFFDFF8A0020121D3
:1031C0000160DFF8A8020121017040F6FF70009055
:1031D0000098411E00910028FAD10120FFF797FCCA
:1031E00001BDF8B504000D000026A14800780028B4
:1031F0005AD0002D58D0202D28D22A009D48007882
:103200009D4911EB4011200000F06EF99348002118
:10321000016098480078401C9649087095480078ED
:10322000502802D393480021017094480078070089
:1032300090480078FFB2B84202D18D480021017059
:10324000864801210160AE1930002EE02022894815
:103250000078894911EB4011200000F045F9203435
:10326000203D20367D480021016082480078401CC6
:10327000804908707F480078502802D37D4800219B
:1032800001707E48007807007A480078FFB2B842A3
:1032900003D177480021017002E0754801210170D7
:1032A0006E4801210160A0E73000F2BD38B504008E
:1032B0000D00734800210170002C01D0002D01D1B8
:1032C00000201DE06F480068002818D1681E4009E2
:1032D0006D4908606B48046064480078012801D09B
:1032E000FFF73BFF5D480021016020222100A02064
:1032F000FFF7A7FE594801210160012000E00020EE
:1033000032BD6048006800280BD15F480068002883
:1033100007D15B480078002801D0012002E002209C
:1033200000E00020704710B582B000A90720FFF729
:1033300074FE9DF800102720FFF75CFE9DF800004A
:10334000400635D5454800210160494800780228EB
:1033500027D040A0FFF7AEFB20224848007846491E
:1033600011EB40116120FFF780FE44480078401CBB
:103370004249087041480078502802D33F48002154
:1033800001703C48007804003C480078E4B2A04258
:1033900003D137480221017007E03548012101704F
:1033A00003E0FF21E220FFF725FE2C480121016008
:1033B0009DF80000800631D53348006800280CD104
:1033C0003048002101603148FFF774FB274800783E
:1033D00002281ED0FFF799FE1BE024480078012840
:1033E00001D0FFF7BAFE2748006820302549086061
:1033F00025480068401E24490860184800210160E3
:10340000202220480168A020FFF71BFE134801215D
:1034100001601D4801681E48FFF74CFB9DF8000045
:10342000C0060ED5164801210170FF21E120FFF7EB
:10343000E1FD144800210160134800210160FFF7FD
:1034400064FE9DF80000C00702D51248FFF732FB6A
:1034500013BD00002B00000003000A007020FE4393
:10346000CC0BFF1FC40BFF1FB44600004C18FF1FFE
:103470004F18FF1F4D18FF1FF40DFF1F4E18FF1FA1
:103480005018FF1FF417FF1FF817FF1F8846000092
:10349000F84500009446000010B504004FF4007099
:1034A00094FBF0F101FB1041002903D01E210B48D1
:1034B000FFF731FA0A48046010BD38B504000D006A
:1034C000074800680749884203D030210348FFF7C6
:1034D00022FA64B2034840F8245031BD2844000069
:1034E00008ED00E00000FF1F30B4002A38D0D41DE2
:1034F000E40823000824B2FBF4F505FB1425002D95
:103500000BD0022D21D024D3042D16D019D3062D93
:103510000BD00ED3072D04D022E00C780470491C88
:10352000401C0C780470491C401C0C780470491C29
:10353000401C0C780470491C401C0C780470491C19
:10354000401C0C780470491C401C0C780470491C09
:10355000401C0C780470491C401C5B1E002BDCD105
:1035600030BC7047DFF800F08D0DFF1F40B2DFF870
:10357000BC1331F8201040B20128C0F27D8140B266
:10358000112880F27981DFF8A8230023137089B213
:10359000312904D2DFF898230023537082E089B2E6
:1035A000612904D2DFF88823012353707AE089B2BD
:1035B000912904D2DFF878230223537072E089B294
:1035C000C12904D2DFF86823032353706AE089B26B
:1035D000F12904D2DFF858230423537062E040F24B
:1035E000211289B2914204D2DFF84423052353709B
:1035F00058E040F2511289B2914204D2DFF83023F0
:10360000062353704EE040F2811289B2914204D2F7
:10361000DFF81C230723537044E040F2B11289B253
:10362000914204D2DFF80823082353703AE040F2B5
:10363000E11289B2914204D2DFF8F42209235370D7
:1036400030E040F2112289B2914204D2DFF8E02248
:103650000A23537026E040F2412289B2914203D2FC
:10366000B34A0B2353701DE040F2712289B291429C
:1036700003D2AF4A0C23537014E040F2A12289B266
:10368000914203D2AA4A0D2353700BE040F2D1229B
:1036900089B2914203D2A64A0E23537002E0A44A93
:1036A0000F23537089B21A2903D2A14A00239370C1
:1036B0006DE089B2332903D29D4A0123937066E0FD
:1036C00089B24C2903D29A4A022393705FE089B2EF
:1036D000652903D2964A0323937058E089B27E2964
:1036E00003D2934A0423937051E089B2972903D2FD
:1036F0008F4A052393704AE089B2B02903D28C4ADD
:103700000623937043E089B2C92903D2884A07236C
:1037100093703CE089B2E22903D2854A0823937072
:1037200035E089B2FB2903D2814A092393702EE048
:103730004FF48A7289B2914203D27D4A0A23937070
:1037400025E040F22D1289B2914203D2784A0B2330
:1037500093701CE089B2B1F5A37F03D2744A0C23A5
:10376000937014E040F25F1289B2914203D2704A22
:103770000D2393700BE04FF4BC7289B2914203D2D7
:103780006B4A0E23937002E0694A0F23937089B24B
:103790001A2903D2664A0023D3706DE089B2332917
:1037A00003D2634A0123D37066E089B24C2903D265
:1037B0005F4A0223D3705FE089B2652903D25C4A75
:1037C0000323D37058E089B27E2903D2584A0423D8
:1037D000D37051E089B2972903D2554A0523D3709B
:1037E0004AE089B2B02903D2514A0623D37043E09C
:1037F00089B2C92903D24E4A0723D3703CE089B26B
:10380000E22903D24A4A0823D37035E089B2FB2962
:1038100003D2474A0923D3702EE04FF48A7289B24B
:10382000914203D2424A0A23D37025E040F22D127E
:1038300089B2914203D23E4A0B23D3701CE089B275
:10384000B1F5A37F03D23A4A0C23D37014E040F2BF
:103850005F1289B2914203D2354A0D23D3700BE037
:103860004FF4BC7289B2914203D2314A0E23D37015
:1038700002E02F4A0F23D370704710B504002000D8
:1038800040B2FFF773FE2B48007810F0FD00294985
:1038900008702848007850F0100026490870264823
:1038A000B821017025480078C006FBD42348007871
:1038B000C0F38100C0B20228F8D11D48C3781C486B
:1038C00082781B4841781A480078FFF74BFE64B2B3
:1038D000164810EB8400807810F01F00184908701B
:1038E00064B2124810EB8400C07810F01F0050F052
:1038F000400014490870114800788006FBD50F4835
:1039000000784006FBD50C48007810F03F000A49CB
:1039100008700A480078C0F38100C0B20328F8D1CB
:1039200064B2024830F82400C0B210BD380BFF1F4B
:103930007C0BFF1F01400640004006400640064049
:10394000044006400540064010B440B24109744AA4
:10395000012310F01F04A34042F8213010BC70472F
:1039600010B440B241096F4A012310F01F04A34074
:1039700042F8213010BC704738B56B48006805002C
:1039800069485FF0FF3101601B20040035FA04F044
:10399000C00701D5FFF7C7FC31BD80B56348FFF70D
:1039A00089F8FFF7D3FA002803D16148FFF782F8BE
:1039B000F7E760496B20FFF780FD5B20FFF7C4FF4E
:1039C00001BD30B5F3B00025FFF7E7FF002004008C
:1039D000052C1FDA18204DA900FB041000214160BE
:1039E00018204DA900FB04100021816018204DA96A
:1039F00000FB04100021C16018204DA900FB041039
:103A00000021016118204DA900FB04100021416133
:103A1000641CDDE700200400102C10DA0DA810EB68
:103A20000410002141600DA810EB041000218160FA
:103A30000DA810EB04100021C160641CECE700200D
:103A40000400032C10DA01A810EB041000214160DF
:103A500001A810EB04100021816001A810EB0410F4
:103A60000021C160641CECE720216BA8FFF7B9FBC3
:103A70000500002D1ED0089801281BD15B20FFF700
:103A80006FFF72B64FF47A720021002000F05AF8EE
:103A90004FF47A720121002000F054F84FF47A724A
:103AA0000221002000F04EF84FF47A72032100202A
:103AB00000F048F80020009001235FF07E520121C1
:103AC000042000F0B9F80020009000235FF080424D
:103AD0000221042000F0B0F8002000900023164AD4
:103AE0000321042000F0A8F8002000900023134ACE
:103AF0000421042000F0A0F8002000900023104AC8
:103B00000521042000F098F80120009000230B4AC2
:103B10000621042000F090F80A20FEF7F8FFA3E742
:103B200000E100E080E100E0A0D00440F4440000A7
:103B300054450000793900000000B0410000044203
:103B4000000034422DE9F04104000D0016005FF042
:103B5000000864B2002C0ED064B2012C02D064B212
:103B6000022C02D16DB2022D05DB4FF4F371DFF8A8
:103B7000BC00FEF7D0FE64B2002C03D0022C15D09E
:103B80000AD31DE0B6F57A7F05D94FF4F671DFF858
:103B90009C00FEF7C0FE13E0B6F57A7F05D94FF41E
:103BA000F871DFF88800FEF7B6FE09E0B6F57A7F17
:103BB00005D94FF4FA71DFF87400FEF7ACFEFFE7A9
:103BC00064B2DFF86C0050F82400804664B2002C28
:103BD00003D0022C15D00AD31DE018F1010000FB20
:103BE00006F04FF47A71B0FBF1F0070013E018F122
:103BF000010000FB06F04FF47A71B0FBF1F0070012
:103C000009E018F1010000FB06F04FF47A71B0FBF7
:103C1000F1F00700FFE76DB264B2DFF8180050F86A
:103C2000240010EBC5000761BDE8F081D842000018
:103C3000DC0DFF1F180BFF1F2DE9F0438DB00400B2
:103C40000D0016001F00DDF850805FF00009DFF85E
:103C50002C01310000F098F800F002F90200DFF8C2
:103C6000201108A800F01EF900A8302109F8001062
:103C700019F10109002F05D000A8232109F800102F
:103C800019F1010900A87C2109F8001019F10109B6
:103C90000B2C14DB0A2094FBF0F0303000A909F85B
:103CA000010019F101090A2094FBF0F100FB114019
:103CB000303000A909F8010019F1010906E000A857
:103CC00014F1300109F8001019F1010900A87C2154
:103CD00009F8001019F101090B2D14DB0A2095FBDE
:103CE000F0F0303000A909F8010019F101090A20AB
:103CF00095FBF0F100FB1150303000A909F80100EC
:103D000019F1010906E000A815F1300109F80010C9
:103D100019F1010900A87C2109F8001019F1010925
:103D200000A8002109F8001019F1010908A900A84C
:103D300000F0D2F8B8F1000F02D00FA100F0CCF8DB
:103D400000A8FDF783F9401E8DF800009DF90000E2
:103D50001F280ADA202100A8FFF7A8FA012808D1B5
:103D6000FFF7CFFA002804D1FAE7DFF81800FEF7D2
:103D7000A1FE0DB0BDE8F0832400000000007A44ED
:103D8000AC46000024450000FF2212EAD05C1DBFB3
:103D900012EAD153944593422BE09C44D30780EA26
:103DA00001021A4043EA002043EA0121A1FB00304E
:103DB000410038BF40007CF17F010BDBFE294ADA6D
:103DC0005B0842EAC15153EA006373F1004C51EBC6
:103DD00010207047D1F1080CDCF120012FDB5B08CB
:103DE00010FA01F10B4373F1004120FA0CF050413D
:103DF000704794451CBF02EAD153934280EA010206
:103E000002F000421DD0400019D0490017D05BB924
:103E1000634514D00902B1FA81F39940BCEB030C5D
:103E2000C00140F00040C1E70002B0FA80FC10FA87
:103E30000CF0B3EB0C0CC90141F00041B6E71000E7
:103E4000704740000AD0490008D010F1807F94BF2D
:103E500011F1807F02E042F0FF407047D04370478D
:103E60004100090E7F3915D4D1F11F0114D440004F
:103E700007D2C00140F00040C84048BF6FF000408A
:103E80007047C00140F00040C8404CBF4FF00040B8
:103E9000404270470020704700424FF0004058BF3A
:103EA000C04370470CB41CB5044604A801900A46F0
:103EB000009401AB00A9074878441830FCF7ACFA2D
:103EC000009900220A7000285CBF0098001B16BCF5
:103ED0005DF80CFB6FD1FFFF024600E0521C137827
:103EE000002BFBD111F8013B137012F8013B002BA2
:103EF000F8D17047DFF800F00F2B0000DFF800F07A
:103F0000172900004D48F02101704C480078000648
:103F1000FBD54A4800787121084201D0002000E01A
:103F20000120704780B54648006850F4002044499D
:103F300008604448006850F40020424908603F4847
:103F400000780006FBD53D48F02101700A20FFF7FC
:103F5000D1FF01BD10B582B00400A4B24FF40060DF
:103F600000FB04F000903848092101709DF8020020
:103F7000364908709DF801003549087035489DF8AC
:103F800000100170FFF7BEFF002801D100200CE0F7
:103F9000A4B2002C08D17FF0010240F20C412000B5
:103FA00080B200F003F800E0012016BD7CB50400EB
:103FB0000D001600A4B24FF40060ADB200FB045037
:103FC0000190ADB2042095FBF0F101FB10510029E6
:103FD00003D0EA212048FFF791FF40F60100ADB27F
:103FE000854203D3EC211C48FFF788FF9DF80600AB
:103FF000164908709DF805001549087015489DF888
:104000000410017000969DF80300144908709DF893
:104010000200134908709DF8010012490870124807
:104020009DF800100170084806210170FFF76AFF33
:10403000002801D1002000E0012076BD00000240F0
:1040400004F0014008F00140070002400600024071
:104050000500024004000240844200000B000240C0
:104060000A0002400900024008000240F0B4114E6C
:10407000366834000F4E366856F47F060D4F3E60AA
:104080000E0616F0706656EA0076170517F47007EC
:104090003E431F0417F470273E43074F3E6000263F
:1040A0003500EDB29D4201D26D1CFAE7014E34603D
:1040B000F0BC704700F001404480044080B500F03F
:1040C00095F800F02AF800F00AF8FEF741FC01220A
:1040D00001210420FEF7A6FEFFF773FCFEE780B582
:1040E0000320FFF7CAFB33490860324800684FF4E9
:1040F0007A714843304908602F4800682F490968A1
:10410000C1F30361491CB0FBF1F02D4908605FF475
:10411000E1310320FEF712FD01BD2DE9F8432948E6
:10412000294988420DD000208046B8F5826F08D218
:104130002448254951F8281040F8281018F10108A2
:10414000F3E72048FFF7A8F92048070020480600B9
:1041500020480400A01B80464046B0F1010800281A
:1041600004D030783870761C7F1CF5E71A488146F9
:104170001A480500B5EB090080464046B0F1010839
:10418000002805D0002089F8000019F10109F4E7A2
:1041900013481449144A531A98464346B3F1010888
:1041A000002B04D00B780370491C401CF5E7BDE8D8
:1041B000F1830000EC0DFF1FE80DFF1F4480044059
:1041C000F00DFF1F0000FF1F000000001004FF1F84
:1041D000C0190000C4210000DC0DFF1F5118FF1F93
:1041E000140CFF1FF43E0000BC40000080B500F03E
:1041F00008F80C4800884FF6FE710840094908800D
:1042000001BDEFF3118072B607494CF220520A80CB
:1042100005494DF628120A80C0B2002800D162B6C6
:1042200070470000002005400E200540463A5C50D3
:10423000726F6A6563745F436F6D706F74697469E0
:104240006F6E5C362E4D79467265657363616C5F87
:10425000313074685C436F64655C4750494F5F4E12
:1042600052465F536F757263655C436869705C7337
:1042700072635C4D4B36305F5379735469636B2EB8
:1042800063000000463A5C50726F6A6563745F4376
:104290006F6D706F746974696F6E5C362E4D794600
:1042A0007265657363616C5F313074685C436F6421
:1042B000655C4750494F5F4E52465F536F7572635E
:1042C000655C436869705C7372635C4D4B36305F4C
:1042D000666C6173682E6300463A5C50726F6A6563
:1042E00063745F436F6D706F746974696F6E5C3671
:1042F0002E4D79467265657363616C5F3130746809
:104300005C436F64655C4750494F5F4E52465F5354
:104310006F757263655C436869705C7372635C4D52
:104320004B36305F66746D2E63000000463A5C5079
:10433000726F6A6563745F436F6D706F74697469DF
:104340006F6E5C362E4D79467265657363616C5F86
:10435000313074685C436F64655C4750494F5F4E11
:1043600052465F536F757263655C436869705C7336
:1043700072635C4D4B36305F6770696F2E6300006F
:10438000463A5C50726F6A6563745F436F6D706F1D
:10439000746974696F6E5C362E4D7946726565730B
:1043A00063616C5F313074685C436F64655C475077
:1043B000494F5F4E52465F536F757263655C436849
:1043C00069705C7372635C4D4B36305F7370692E3D
:1043D00063000000463A5C50726F6A6563745F4325
:1043E0006F6D706F746974696F6E5C362E4D7946AF
:1043F0007265657363616C5F313074685C436F64D0
:10440000655C4750494F5F4E52465F536F7572630C
:10441000655C436869705C7372635C4D4B36305FFA
:10442000756172742E630000463A5C50726F6A6563
:1044300063745F436F6D706F746974696F6E5C361F
:104440002E4D79467265657363616C5F31307468B7
:104450005C436F64655C4750494F5F4E52465F5303
:104460006F757263655C436869705C7372635C6DE1
:104470006973632E63000000020000000400000066
:1044800006000000080000001000000020000000EE
:104490004000000080000000000100000002000059
:1044A00000040000000800000010000000200000D0
:1044B00000400000008000000A2A2A2A2A6465665B
:1044C00061756C745F69737220656E746572656482
:1044D000206F6E20766563746F722025642A2A2A05
:1044E0002A2A0A0A257320496E74657272757074DF
:1044F000000000000A0A0A2A2A2A2A2A2A2A2A2A24
:104500002A2ACEDECFDFC4A3BFE94E524632344C56
:1045100030312BB2E2CAD42A2A2A2A2A2A2A2A2A63
:104520002A2A2A00696E204E52465F4449592E635A
:10453000206F66202253656E645061636B5F536821
:104540006F727422206973206F766572666C6F7764
:10455000212100000A20204E5246D3EB4D4355C185
:10456000ACBDD3CAA7B0DCA3ACC7EBD6D8D0C2BC15
:10457000ECB2E9BDD3CFDFA1A30A000010B5074913
:1045800079441831064C7C44163404E00A68081D4E
:10459000511888470146A142F8D110BD2C000000F7
:1045A00038000000417373657274696F6E20666134
:1045B000696C656420696E202573206174206C69C4
:1045C0006E652025640A000043CAFFFF780A0000D8
:1045D000DC0DFF1F000000000ABDF8D0D0BDE2CB0B
:1045E000F8B2D9D7F7A3ACC7EBD6D8D0C2CBA2C804
:1045F000EBB9CCBCFE00000072656D61696E3A20BB
:10460000256420746F2062652073656E6465640A9A
:104610000000000000F00BF8002801D0FFF7AEFF0B
:104620000020C046C046FFF7CCF900F002F8012098
:10463000704700F001B800000746384600F002F865
:10464000FBE7000001491820ABBEFBE72600020093
:1046500038B504460D46284600F006F8A84218BFB3
:104660000024204632BD00000149FEF767B900BFB3
:10467000D40BFF1F0ABDF8C8EBCBC0D1ADBBB7B59B
:10468000C8B4FDA3A1000000646F6E652121210A5A
:10469000000000000A54585F46554C4C00000000D2
:1046A000C046C046C046C046FFF7B4FF2534647C10
:1046B00000000000C2C2C2C2C2000000020305071F
:1046C00000000000000000000000000000000000EA
:1046D000000000000000000000000000FFFFFFFFDE
:1046E000FFFFFFFF000000000000000000000000CE
:1046F00000000000000000000000000000000000BA
:104700000000000000000000FFFFFFFFFFFF0000AF
:104710000000000000000000000000000000000099
:104720000000000000000000000000000000000089
:104730000000000000000000000000000000000079
:08474000000000000000000071
:04000005000046A110
:00000001FF
